{
	"CryptoTrader.sol": {
		"CryptoTrader": {
			"abi": [
				{
					"inputs": [],
					"stateMutability": "nonpayable",
					"type": "constructor"
				},
				{
					"anonymous": false,
					"inputs": [
						{
							"indexed": false,
							"internalType": "string",
							"name": "name",
							"type": "string"
						},
						{
							"indexed": false,
							"internalType": "uint256",
							"name": "price",
							"type": "uint256"
						}
					],
					"name": "CryptoPriceUpdated",
					"type": "event"
				},
				{
					"inputs": [
						{
							"internalType": "string",
							"name": "name",
							"type": "string"
						},
						{
							"internalType": "uint256",
							"name": "price",
							"type": "uint256"
						}
					],
					"name": "addCrypto",
					"outputs": [],
					"stateMutability": "nonpayable",
					"type": "function"
				},
				{
					"inputs": [
						{
							"internalType": "string",
							"name": "name",
							"type": "string"
						},
						{
							"internalType": "uint256",
							"name": "shares",
							"type": "uint256"
						}
					],
					"name": "buyCrypto",
					"outputs": [],
					"stateMutability": "payable",
					"type": "function"
				},
				{
					"inputs": [
						{
							"internalType": "string",
							"name": "name",
							"type": "string"
						}
					],
					"name": "cryptoExists",
					"outputs": [
						{
							"internalType": "bool",
							"name": "",
							"type": "bool"
						}
					],
					"stateMutability": "view",
					"type": "function"
				},
				{
					"inputs": [
						{
							"internalType": "string",
							"name": "",
							"type": "string"
						}
					],
					"name": "cryptos",
					"outputs": [
						{
							"internalType": "string",
							"name": "name",
							"type": "string"
						},
						{
							"internalType": "uint256",
							"name": "price",
							"type": "uint256"
						}
					],
					"stateMutability": "view",
					"type": "function"
				},
				{
					"inputs": [],
					"name": "owner",
					"outputs": [
						{
							"internalType": "address",
							"name": "",
							"type": "address"
						}
					],
					"stateMutability": "view",
					"type": "function"
				},
				{
					"inputs": [
						{
							"internalType": "string",
							"name": "name",
							"type": "string"
						}
					],
					"name": "sellCrypto",
					"outputs": [],
					"stateMutability": "view",
					"type": "function"
				},
				{
					"inputs": [
						{
							"internalType": "string",
							"name": "name",
							"type": "string"
						},
						{
							"internalType": "uint256",
							"name": "price",
							"type": "uint256"
						}
					],
					"name": "updateCryptoPrice",
					"outputs": [],
					"stateMutability": "nonpayable",
					"type": "function"
				}
			],
			"devdoc": {
				"kind": "dev",
				"methods": {},
				"version": 1
			},
			"evm": {
				"assembly": "    /* \"CryptoTrader.sol\":60:2243  contract CryptoTrader {... */\n  mstore(0x40, 0x80)\n    /* \"CryptoTrader.sol\":531:618  constructor() {... */\n  callvalue\n  dup1\n  iszero\n  tag_1\n  jumpi\n  0x00\n  dup1\n  revert\ntag_1:\n  pop\n    /* \"CryptoTrader.sol\":560:570  msg.sender */\n  caller\n    /* \"CryptoTrader.sol\":552:557  owner */\n  0x01\n  0x00\n    /* \"CryptoTrader.sol\":552:570  owner = msg.sender */\n  0x0100\n  exp\n  dup2\n  sload\n  dup2\n  0xffffffffffffffffffffffffffffffffffffffff\n  mul\n  not\n  and\n  swap1\n  dup4\n  0xffffffffffffffffffffffffffffffffffffffff\n  and\n  mul\n  or\n  swap1\n  sstore\n  pop\n    /* \"CryptoTrader.sol\":60:2243  contract CryptoTrader {... */\n  dataSize(sub_0)\n  dup1\n  dataOffset(sub_0)\n  0x00\n  codecopy\n  0x00\n  return\nstop\n\nsub_0: assembly {\n        /* \"CryptoTrader.sol\":60:2243  contract CryptoTrader {... */\n      mstore(0x40, 0x80)\n      jumpi(tag_1, lt(calldatasize, 0x04))\n      shr(0xe0, calldataload(0x00))\n      dup1\n      0x8da5cb5b\n      gt\n      tag_9\n      jumpi\n      dup1\n      0x8da5cb5b\n      eq\n      tag_5\n      jumpi\n      dup1\n      0x9b69eeb3\n      eq\n      tag_6\n      jumpi\n      dup1\n      0xa278544a\n      eq\n      tag_7\n      jumpi\n      dup1\n      0xeb4939bd\n      eq\n      tag_8\n      jumpi\n      jump(tag_1)\n    tag_9:\n      dup1\n      0x28e8fda5\n      eq\n      tag_2\n      jumpi\n      dup1\n      0x2b4bedb9\n      eq\n      tag_3\n      jumpi\n      dup1\n      0x6edb5ff3\n      eq\n      tag_4\n      jumpi\n    tag_1:\n      0x00\n      dup1\n      revert\n        /* \"CryptoTrader.sol\":1404:1774  function buyCrypto(string memory name, uint256 shares) public payable {... */\n    tag_2:\n      tag_10\n      0x04\n      dup1\n      calldatasize\n      sub\n      dup2\n      add\n      swap1\n      tag_11\n      swap2\n      swap1\n      tag_12\n      jump\t// in\n    tag_11:\n      tag_13\n      jump\t// in\n    tag_10:\n      stop\n        /* \"CryptoTrader.sol\":953:1174  function updateCryptoPrice(string memory name, uint256 price) public onlyOwner {... */\n    tag_3:\n      callvalue\n      dup1\n      iszero\n      tag_14\n      jumpi\n      0x00\n      dup1\n      revert\n    tag_14:\n      pop\n      tag_15\n      0x04\n      dup1\n      calldatasize\n      sub\n      dup2\n      add\n      swap1\n      tag_16\n      swap2\n      swap1\n      tag_12\n      jump\t// in\n    tag_16:\n      tag_17\n      jump\t// in\n    tag_15:\n      stop\n        /* \"CryptoTrader.sol\":690:869  function addCrypto(string memory name, uint256 price) public onlyOwner {... */\n    tag_4:\n      callvalue\n      dup1\n      iszero\n      tag_18\n      jumpi\n      0x00\n      dup1\n      revert\n    tag_18:\n      pop\n      tag_19\n      0x04\n      dup1\n      calldatasize\n      sub\n      dup2\n      add\n      swap1\n      tag_20\n      swap2\n      swap1\n      tag_12\n      jump\t// in\n    tag_20:\n      tag_21\n      jump\t// in\n    tag_19:\n      stop\n        /* \"CryptoTrader.sol\":394:414  address public owner */\n    tag_5:\n      callvalue\n      dup1\n      iszero\n      tag_22\n      jumpi\n      0x00\n      dup1\n      revert\n    tag_22:\n      pop\n      tag_23\n      tag_24\n      jump\t// in\n    tag_23:\n      mload(0x40)\n      tag_25\n      swap2\n      swap1\n      tag_26\n      jump\t// in\n    tag_25:\n      mload(0x40)\n      dup1\n      swap2\n      sub\n      swap1\n      return\n        /* \"CryptoTrader.sol\":1231:1356  function cryptoExists(string memory name) public view returns (bool) {... */\n    tag_6:\n      callvalue\n      dup1\n      iszero\n      tag_27\n      jumpi\n      0x00\n      dup1\n      revert\n    tag_27:\n      pop\n      tag_28\n      0x04\n      dup1\n      calldatasize\n      sub\n      dup2\n      add\n      swap1\n      tag_29\n      swap2\n      swap1\n      tag_30\n      jump\t// in\n    tag_29:\n      tag_31\n      jump\t// in\n    tag_28:\n      mload(0x40)\n      tag_32\n      swap2\n      swap1\n      tag_33\n      jump\t// in\n    tag_32:\n      mload(0x40)\n      dup1\n      swap2\n      sub\n      swap1\n      return\n        /* \"CryptoTrader.sol\":289:329  mapping(string => Crypto) public cryptos */\n    tag_7:\n      callvalue\n      dup1\n      iszero\n      tag_34\n      jumpi\n      0x00\n      dup1\n      revert\n    tag_34:\n      pop\n      tag_35\n      0x04\n      dup1\n      calldatasize\n      sub\n      dup2\n      add\n      swap1\n      tag_36\n      swap2\n      swap1\n      tag_30\n      jump\t// in\n    tag_36:\n      tag_37\n      jump\t// in\n    tag_35:\n      mload(0x40)\n      tag_38\n      swap3\n      swap2\n      swap1\n      tag_39\n      jump\t// in\n    tag_38:\n      mload(0x40)\n      dup1\n      swap2\n      sub\n      swap1\n      return\n        /* \"CryptoTrader.sol\":1823:2019  function sellCrypto(string memory name) view  public {... */\n    tag_8:\n      callvalue\n      dup1\n      iszero\n      tag_40\n      jumpi\n      0x00\n      dup1\n      revert\n    tag_40:\n      pop\n      tag_41\n      0x04\n      dup1\n      calldatasize\n      sub\n      dup2\n      add\n      swap1\n      tag_42\n      swap2\n      swap1\n      tag_30\n      jump\t// in\n    tag_42:\n      tag_43\n      jump\t// in\n    tag_41:\n      stop\n        /* \"CryptoTrader.sol\":1404:1774  function buyCrypto(string memory name, uint256 shares) public payable {... */\n    tag_13:\n        /* \"CryptoTrader.sol\":1489:1507  cryptoExists(name) */\n      tag_45\n        /* \"CryptoTrader.sol\":1502:1506  name */\n      dup3\n        /* \"CryptoTrader.sol\":1489:1501  cryptoExists */\n      tag_31\n        /* \"CryptoTrader.sol\":1489:1507  cryptoExists(name) */\n      jump\t// in\n    tag_45:\n        /* \"CryptoTrader.sol\":1481:1533  require(cryptoExists(name), \"Crypto does not exist\") */\n      tag_46\n      jumpi\n      mload(0x40)\n      0x08c379a000000000000000000000000000000000000000000000000000000000\n      dup2\n      mstore\n      0x04\n      add\n      tag_47\n      swap1\n      tag_48\n      jump\t// in\n    tag_47:\n      mload(0x40)\n      dup1\n      swap2\n      sub\n      swap1\n      revert\n    tag_46:\n        /* \"CryptoTrader.sol\":1540:1561  Crypto storage crypto */\n      0x00\n        /* \"CryptoTrader.sol\":1564:1571  cryptos */\n      dup1\n        /* \"CryptoTrader.sol\":1572:1576  name */\n      dup4\n        /* \"CryptoTrader.sol\":1564:1577  cryptos[name] */\n      mload(0x40)\n      tag_49\n      swap2\n      swap1\n      tag_50\n      jump\t// in\n    tag_49:\n      swap1\n      dup2\n      mstore\n      0x20\n      add\n      mload(0x40)\n      dup1\n      swap2\n      sub\n      swap1\n      keccak256\n        /* \"CryptoTrader.sol\":1540:1577  Crypto storage crypto = cryptos[name] */\n      swap1\n      pop\n        /* \"CryptoTrader.sol\":1584:1602  uint256 totalPrice */\n      0x00\n        /* \"CryptoTrader.sol\":1620:1626  shares */\n      dup3\n        /* \"CryptoTrader.sol\":1605:1611  crypto */\n      dup3\n        /* \"CryptoTrader.sol\":1605:1617  crypto.price */\n      0x01\n      add\n      sload\n        /* \"CryptoTrader.sol\":1605:1626  crypto.price * shares */\n      tag_51\n      swap2\n      swap1\n      tag_52\n      jump\t// in\n    tag_51:\n        /* \"CryptoTrader.sol\":1584:1626  uint256 totalPrice = crypto.price * shares */\n      swap1\n      pop\n        /* \"CryptoTrader.sol\":1654:1664  totalPrice */\n      dup1\n        /* \"CryptoTrader.sol\":1641:1650  msg.value */\n      callvalue\n        /* \"CryptoTrader.sol\":1641:1664  msg.value >= totalPrice */\n      lt\n      iszero\n        /* \"CryptoTrader.sol\":1633:1687  require(msg.value >= totalPrice, \"Insufficient funds\") */\n      tag_53\n      jumpi\n      mload(0x40)\n      0x08c379a000000000000000000000000000000000000000000000000000000000\n      dup2\n      mstore\n      0x04\n      add\n      tag_54\n      swap1\n      tag_55\n      jump\t// in\n    tag_54:\n      mload(0x40)\n      dup1\n      swap2\n      sub\n      swap1\n      revert\n    tag_53:\n        /* \"CryptoTrader.sol\":1474:1774  {... */\n      pop\n      pop\n        /* \"CryptoTrader.sol\":1404:1774  function buyCrypto(string memory name, uint256 shares) public payable {... */\n      pop\n      pop\n      jump\t// out\n        /* \"CryptoTrader.sol\":953:1174  function updateCryptoPrice(string memory name, uint256 price) public onlyOwner {... */\n    tag_17:\n        /* \"CryptoTrader.sol\":2134:2139  owner */\n      0x01\n      0x00\n      swap1\n      sload\n      swap1\n      0x0100\n      exp\n      swap1\n      div\n      0xffffffffffffffffffffffffffffffffffffffff\n      and\n        /* \"CryptoTrader.sol\":2120:2139  msg.sender == owner */\n      0xffffffffffffffffffffffffffffffffffffffff\n      and\n        /* \"CryptoTrader.sol\":2120:2130  msg.sender */\n      caller\n        /* \"CryptoTrader.sol\":2120:2139  msg.sender == owner */\n      0xffffffffffffffffffffffffffffffffffffffff\n      and\n      eq\n        /* \"CryptoTrader.sol\":2112:2178  require(msg.sender == owner, \"Only owner can perform this action\") */\n      tag_57\n      jumpi\n      mload(0x40)\n      0x08c379a000000000000000000000000000000000000000000000000000000000\n      dup2\n      mstore\n      0x04\n      add\n      tag_58\n      swap1\n      tag_59\n      jump\t// in\n    tag_58:\n      mload(0x40)\n      dup1\n      swap2\n      sub\n      swap1\n      revert\n    tag_57:\n        /* \"CryptoTrader.sol\":1047:1065  cryptoExists(name) */\n      tag_61\n        /* \"CryptoTrader.sol\":1060:1064  name */\n      dup3\n        /* \"CryptoTrader.sol\":1047:1059  cryptoExists */\n      tag_31\n        /* \"CryptoTrader.sol\":1047:1065  cryptoExists(name) */\n      jump\t// in\n    tag_61:\n        /* \"CryptoTrader.sol\":1039:1091  require(cryptoExists(name), \"Crypto does not exist\") */\n      tag_62\n      jumpi\n      mload(0x40)\n      0x08c379a000000000000000000000000000000000000000000000000000000000\n      dup2\n      mstore\n      0x04\n      add\n      tag_63\n      swap1\n      tag_48\n      jump\t// in\n    tag_63:\n      mload(0x40)\n      dup1\n      swap2\n      sub\n      swap1\n      revert\n    tag_62:\n        /* \"CryptoTrader.sol\":1120:1125  price */\n      dup1\n        /* \"CryptoTrader.sol\":1098:1105  cryptos */\n      0x00\n        /* \"CryptoTrader.sol\":1106:1110  name */\n      dup4\n        /* \"CryptoTrader.sol\":1098:1111  cryptos[name] */\n      mload(0x40)\n      tag_64\n      swap2\n      swap1\n      tag_50\n      jump\t// in\n    tag_64:\n      swap1\n      dup2\n      mstore\n      0x20\n      add\n      mload(0x40)\n      dup1\n      swap2\n      sub\n      swap1\n      keccak256\n        /* \"CryptoTrader.sol\":1098:1117  cryptos[name].price */\n      0x01\n      add\n        /* \"CryptoTrader.sol\":1098:1125  cryptos[name].price = price */\n      dup2\n      swap1\n      sstore\n      pop\n        /* \"CryptoTrader.sol\":1137:1168  CryptoPriceUpdated(name, price) */\n      0xf7c6e7e72e3866fde0521b64a23f9f878f60c7721e80dfc6f423ca1bc7f28c08\n        /* \"CryptoTrader.sol\":1156:1160  name */\n      dup3\n        /* \"CryptoTrader.sol\":1162:1167  price */\n      dup3\n        /* \"CryptoTrader.sol\":1137:1168  CryptoPriceUpdated(name, price) */\n      mload(0x40)\n      tag_65\n      swap3\n      swap2\n      swap1\n      tag_39\n      jump\t// in\n    tag_65:\n      mload(0x40)\n      dup1\n      swap2\n      sub\n      swap1\n      log1\n        /* \"CryptoTrader.sol\":953:1174  function updateCryptoPrice(string memory name, uint256 price) public onlyOwner {... */\n      pop\n      pop\n      jump\t// out\n        /* \"CryptoTrader.sol\":690:869  function addCrypto(string memory name, uint256 price) public onlyOwner {... */\n    tag_21:\n        /* \"CryptoTrader.sol\":2134:2139  owner */\n      0x01\n      0x00\n      swap1\n      sload\n      swap1\n      0x0100\n      exp\n      swap1\n      div\n      0xffffffffffffffffffffffffffffffffffffffff\n      and\n        /* \"CryptoTrader.sol\":2120:2139  msg.sender == owner */\n      0xffffffffffffffffffffffffffffffffffffffff\n      and\n        /* \"CryptoTrader.sol\":2120:2130  msg.sender */\n      caller\n        /* \"CryptoTrader.sol\":2120:2139  msg.sender == owner */\n      0xffffffffffffffffffffffffffffffffffffffff\n      and\n      eq\n        /* \"CryptoTrader.sol\":2112:2178  require(msg.sender == owner, \"Only owner can perform this action\") */\n      tag_67\n      jumpi\n      mload(0x40)\n      0x08c379a000000000000000000000000000000000000000000000000000000000\n      dup2\n      mstore\n      0x04\n      add\n      tag_68\n      swap1\n      tag_59\n      jump\t// in\n    tag_68:\n      mload(0x40)\n      dup1\n      swap2\n      sub\n      swap1\n      revert\n    tag_67:\n        /* \"CryptoTrader.sol\":777:795  cryptoExists(name) */\n      tag_70\n        /* \"CryptoTrader.sol\":790:794  name */\n      dup3\n        /* \"CryptoTrader.sol\":777:789  cryptoExists */\n      tag_31\n        /* \"CryptoTrader.sol\":777:795  cryptoExists(name) */\n      jump\t// in\n    tag_70:\n        /* \"CryptoTrader.sol\":776:795  !cryptoExists(name) */\n      iszero\n        /* \"CryptoTrader.sol\":768:821  require(!cryptoExists(name), \"Crypto already exists\") */\n      tag_71\n      jumpi\n      mload(0x40)\n      0x08c379a000000000000000000000000000000000000000000000000000000000\n      dup2\n      mstore\n      0x04\n      add\n      tag_72\n      swap1\n      tag_73\n      jump\t// in\n    tag_72:\n      mload(0x40)\n      dup1\n      swap2\n      sub\n      swap1\n      revert\n    tag_71:\n        /* \"CryptoTrader.sol\":844:863  Crypto(name, price) */\n      mload(0x40)\n      dup1\n      0x40\n      add\n      0x40\n      mstore\n      dup1\n        /* \"CryptoTrader.sol\":851:855  name */\n      dup4\n        /* \"CryptoTrader.sol\":844:863  Crypto(name, price) */\n      dup2\n      mstore\n      0x20\n      add\n        /* \"CryptoTrader.sol\":857:862  price */\n      dup3\n        /* \"CryptoTrader.sol\":844:863  Crypto(name, price) */\n      dup2\n      mstore\n      pop\n        /* \"CryptoTrader.sol\":828:835  cryptos */\n      0x00\n        /* \"CryptoTrader.sol\":836:840  name */\n      dup4\n        /* \"CryptoTrader.sol\":828:841  cryptos[name] */\n      mload(0x40)\n      tag_74\n      swap2\n      swap1\n      tag_50\n      jump\t// in\n    tag_74:\n      swap1\n      dup2\n      mstore\n      0x20\n      add\n      mload(0x40)\n      dup1\n      swap2\n      sub\n      swap1\n      keccak256\n        /* \"CryptoTrader.sol\":828:863  cryptos[name] = Crypto(name, price) */\n      0x00\n      dup3\n      add\n      mload\n      dup2\n      0x00\n      add\n      swap1\n      dup2\n      tag_75\n      swap2\n      swap1\n      tag_76\n      jump\t// in\n    tag_75:\n      pop\n      0x20\n      dup3\n      add\n      mload\n      dup2\n      0x01\n      add\n      sstore\n      swap1\n      pop\n      pop\n        /* \"CryptoTrader.sol\":690:869  function addCrypto(string memory name, uint256 price) public onlyOwner {... */\n      pop\n      pop\n      jump\t// out\n        /* \"CryptoTrader.sol\":394:414  address public owner */\n    tag_24:\n      0x01\n      0x00\n      swap1\n      sload\n      swap1\n      0x0100\n      exp\n      swap1\n      div\n      0xffffffffffffffffffffffffffffffffffffffff\n      and\n      dup2\n      jump\t// out\n        /* \"CryptoTrader.sol\":1231:1356  function cryptoExists(string memory name) public view returns (bool) {... */\n    tag_31:\n        /* \"CryptoTrader.sol\":1294:1298  bool */\n      0x00\n        /* \"CryptoTrader.sol\":1349:1350  0 */\n      dup1\n        /* \"CryptoTrader.sol\":1320:1327  cryptos */\n      0x00\n        /* \"CryptoTrader.sol\":1328:1332  name */\n      dup4\n        /* \"CryptoTrader.sol\":1320:1333  cryptos[name] */\n      mload(0x40)\n      tag_78\n      swap2\n      swap1\n      tag_50\n      jump\t// in\n    tag_78:\n      swap1\n      dup2\n      mstore\n      0x20\n      add\n      mload(0x40)\n      dup1\n      swap2\n      sub\n      swap1\n      keccak256\n        /* \"CryptoTrader.sol\":1320:1338  cryptos[name].name */\n      0x00\n      add\n        /* \"CryptoTrader.sol\":1314:1346  bytes(cryptos[name].name).length */\n      dup1\n      sload\n      tag_79\n      swap1\n      tag_80\n      jump\t// in\n    tag_79:\n      swap1\n      pop\n        /* \"CryptoTrader.sol\":1314:1350  bytes(cryptos[name].name).length > 0 */\n      gt\n        /* \"CryptoTrader.sol\":1307:1350  return bytes(cryptos[name].name).length > 0 */\n      swap1\n      pop\n        /* \"CryptoTrader.sol\":1231:1356  function cryptoExists(string memory name) public view returns (bool) {... */\n      swap2\n      swap1\n      pop\n      jump\t// out\n        /* \"CryptoTrader.sol\":289:329  mapping(string => Crypto) public cryptos */\n    tag_37:\n      0x00\n      dup2\n      dup1\n      mload\n      0x20\n      dup2\n      add\n      dup3\n      add\n      dup1\n      mload\n      dup5\n      dup3\n      mstore\n      0x20\n      dup4\n      add\n      0x20\n      dup6\n      add\n      keccak256\n      dup2\n      dup4\n      mstore\n      dup1\n      swap6\n      pop\n      pop\n      pop\n      pop\n      pop\n      pop\n      0x00\n      swap2\n      pop\n      swap1\n      pop\n      dup1\n      0x00\n      add\n      dup1\n      sload\n      tag_81\n      swap1\n      tag_80\n      jump\t// in\n    tag_81:\n      dup1\n      0x1f\n      add\n      0x20\n      dup1\n      swap2\n      div\n      mul\n      0x20\n      add\n      mload(0x40)\n      swap1\n      dup2\n      add\n      0x40\n      mstore\n      dup1\n      swap3\n      swap2\n      swap1\n      dup2\n      dup2\n      mstore\n      0x20\n      add\n      dup3\n      dup1\n      sload\n      tag_82\n      swap1\n      tag_80\n      jump\t// in\n    tag_82:\n      dup1\n      iszero\n      tag_83\n      jumpi\n      dup1\n      0x1f\n      lt\n      tag_84\n      jumpi\n      0x0100\n      dup1\n      dup4\n      sload\n      div\n      mul\n      dup4\n      mstore\n      swap2\n      0x20\n      add\n      swap2\n      jump(tag_83)\n    tag_84:\n      dup3\n      add\n      swap2\n      swap1\n      0x00\n      mstore\n      keccak256(0x00, 0x20)\n      swap1\n    tag_85:\n      dup2\n      sload\n      dup2\n      mstore\n      swap1\n      0x01\n      add\n      swap1\n      0x20\n      add\n      dup1\n      dup4\n      gt\n      tag_85\n      jumpi\n      dup3\n      swap1\n      sub\n      0x1f\n      and\n      dup3\n      add\n      swap2\n    tag_83:\n      pop\n      pop\n      pop\n      pop\n      pop\n      swap1\n      dup1\n      0x01\n      add\n      sload\n      swap1\n      pop\n      dup3\n      jump\t// out\n        /* \"CryptoTrader.sol\":1823:2019  function sellCrypto(string memory name) view  public {... */\n    tag_43:\n        /* \"CryptoTrader.sol\":1891:1909  cryptoExists(name) */\n      tag_87\n        /* \"CryptoTrader.sol\":1904:1908  name */\n      dup2\n        /* \"CryptoTrader.sol\":1891:1903  cryptoExists */\n      tag_31\n        /* \"CryptoTrader.sol\":1891:1909  cryptoExists(name) */\n      jump\t// in\n    tag_87:\n        /* \"CryptoTrader.sol\":1883:1935  require(cryptoExists(name), \"Crypto does not exist\") */\n      tag_88\n      jumpi\n      mload(0x40)\n      0x08c379a000000000000000000000000000000000000000000000000000000000\n      dup2\n      mstore\n      0x04\n      add\n      tag_89\n      swap1\n      tag_48\n      jump\t// in\n    tag_89:\n      mload(0x40)\n      dup1\n      swap2\n      sub\n      swap1\n      revert\n    tag_88:\n        /* \"CryptoTrader.sol\":1823:2019  function sellCrypto(string memory name) view  public {... */\n      pop\n      jump\t// out\n        /* \"#utility.yul\":7:82   */\n    tag_90:\n        /* \"#utility.yul\":40:46   */\n      0x00\n        /* \"#utility.yul\":73:75   */\n      0x40\n        /* \"#utility.yul\":67:76   */\n      mload\n        /* \"#utility.yul\":57:76   */\n      swap1\n      pop\n        /* \"#utility.yul\":7:82   */\n      swap1\n      jump\t// out\n        /* \"#utility.yul\":88:205   */\n    tag_91:\n        /* \"#utility.yul\":197:198   */\n      0x00\n        /* \"#utility.yul\":194:195   */\n      dup1\n        /* \"#utility.yul\":187:199   */\n      revert\n        /* \"#utility.yul\":211:328   */\n    tag_92:\n        /* \"#utility.yul\":320:321   */\n      0x00\n        /* \"#utility.yul\":317:318   */\n      dup1\n        /* \"#utility.yul\":310:322   */\n      revert\n        /* \"#utility.yul\":334:451   */\n    tag_93:\n        /* \"#utility.yul\":443:444   */\n      0x00\n        /* \"#utility.yul\":440:441   */\n      dup1\n        /* \"#utility.yul\":433:445   */\n      revert\n        /* \"#utility.yul\":457:574   */\n    tag_94:\n        /* \"#utility.yul\":566:567   */\n      0x00\n        /* \"#utility.yul\":563:564   */\n      dup1\n        /* \"#utility.yul\":556:568   */\n      revert\n        /* \"#utility.yul\":580:682   */\n    tag_95:\n        /* \"#utility.yul\":621:627   */\n      0x00\n        /* \"#utility.yul\":672:674   */\n      0x1f\n        /* \"#utility.yul\":668:675   */\n      not\n        /* \"#utility.yul\":663:665   */\n      0x1f\n        /* \"#utility.yul\":656:661   */\n      dup4\n        /* \"#utility.yul\":652:666   */\n      add\n        /* \"#utility.yul\":648:676   */\n      and\n        /* \"#utility.yul\":638:676   */\n      swap1\n      pop\n        /* \"#utility.yul\":580:682   */\n      swap2\n      swap1\n      pop\n      jump\t// out\n        /* \"#utility.yul\":688:868   */\n    tag_96:\n        /* \"#utility.yul\":736:813   */\n      0x4e487b7100000000000000000000000000000000000000000000000000000000\n        /* \"#utility.yul\":733:734   */\n      0x00\n        /* \"#utility.yul\":726:814   */\n      mstore\n        /* \"#utility.yul\":833:837   */\n      0x41\n        /* \"#utility.yul\":830:831   */\n      0x04\n        /* \"#utility.yul\":823:838   */\n      mstore\n        /* \"#utility.yul\":857:861   */\n      0x24\n        /* \"#utility.yul\":854:855   */\n      0x00\n        /* \"#utility.yul\":847:862   */\n      revert\n        /* \"#utility.yul\":874:1155   */\n    tag_97:\n        /* \"#utility.yul\":957:984   */\n      tag_152\n        /* \"#utility.yul\":979:983   */\n      dup3\n        /* \"#utility.yul\":957:984   */\n      tag_95\n      jump\t// in\n    tag_152:\n        /* \"#utility.yul\":949:955   */\n      dup2\n        /* \"#utility.yul\":945:985   */\n      add\n        /* \"#utility.yul\":1087:1093   */\n      dup2\n        /* \"#utility.yul\":1075:1085   */\n      dup2\n        /* \"#utility.yul\":1072:1094   */\n      lt\n        /* \"#utility.yul\":1051:1069   */\n      0xffffffffffffffff\n        /* \"#utility.yul\":1039:1049   */\n      dup3\n        /* \"#utility.yul\":1036:1070   */\n      gt\n        /* \"#utility.yul\":1033:1095   */\n      or\n        /* \"#utility.yul\":1030:1118   */\n      iszero\n      tag_153\n      jumpi\n        /* \"#utility.yul\":1098:1116   */\n      tag_154\n      tag_96\n      jump\t// in\n    tag_154:\n        /* \"#utility.yul\":1030:1118   */\n    tag_153:\n        /* \"#utility.yul\":1138:1148   */\n      dup1\n        /* \"#utility.yul\":1134:1136   */\n      0x40\n        /* \"#utility.yul\":1127:1149   */\n      mstore\n        /* \"#utility.yul\":917:1155   */\n      pop\n        /* \"#utility.yul\":874:1155   */\n      pop\n      pop\n      jump\t// out\n        /* \"#utility.yul\":1161:1290   */\n    tag_98:\n        /* \"#utility.yul\":1195:1201   */\n      0x00\n        /* \"#utility.yul\":1222:1242   */\n      tag_156\n      tag_90\n      jump\t// in\n    tag_156:\n        /* \"#utility.yul\":1212:1242   */\n      swap1\n      pop\n        /* \"#utility.yul\":1251:1284   */\n      tag_157\n        /* \"#utility.yul\":1279:1283   */\n      dup3\n        /* \"#utility.yul\":1271:1277   */\n      dup3\n        /* \"#utility.yul\":1251:1284   */\n      tag_97\n      jump\t// in\n    tag_157:\n        /* \"#utility.yul\":1161:1290   */\n      swap2\n      swap1\n      pop\n      jump\t// out\n        /* \"#utility.yul\":1296:1604   */\n    tag_99:\n        /* \"#utility.yul\":1358:1362   */\n      0x00\n        /* \"#utility.yul\":1448:1466   */\n      0xffffffffffffffff\n        /* \"#utility.yul\":1440:1446   */\n      dup3\n        /* \"#utility.yul\":1437:1467   */\n      gt\n        /* \"#utility.yul\":1434:1490   */\n      iszero\n      tag_159\n      jumpi\n        /* \"#utility.yul\":1470:1488   */\n      tag_160\n      tag_96\n      jump\t// in\n    tag_160:\n        /* \"#utility.yul\":1434:1490   */\n    tag_159:\n        /* \"#utility.yul\":1508:1537   */\n      tag_161\n        /* \"#utility.yul\":1530:1536   */\n      dup3\n        /* \"#utility.yul\":1508:1537   */\n      tag_95\n      jump\t// in\n    tag_161:\n        /* \"#utility.yul\":1500:1537   */\n      swap1\n      pop\n        /* \"#utility.yul\":1592:1596   */\n      0x20\n        /* \"#utility.yul\":1586:1590   */\n      dup2\n        /* \"#utility.yul\":1582:1597   */\n      add\n        /* \"#utility.yul\":1574:1597   */\n      swap1\n      pop\n        /* \"#utility.yul\":1296:1604   */\n      swap2\n      swap1\n      pop\n      jump\t// out\n        /* \"#utility.yul\":1610:1758   */\n    tag_100:\n        /* \"#utility.yul\":1708:1714   */\n      dup3\n        /* \"#utility.yul\":1703:1706   */\n      dup2\n        /* \"#utility.yul\":1698:1701   */\n      dup4\n        /* \"#utility.yul\":1685:1715   */\n      calldatacopy\n        /* \"#utility.yul\":1749:1750   */\n      0x00\n        /* \"#utility.yul\":1740:1746   */\n      dup4\n        /* \"#utility.yul\":1735:1738   */\n      dup4\n        /* \"#utility.yul\":1731:1747   */\n      add\n        /* \"#utility.yul\":1724:1751   */\n      mstore\n        /* \"#utility.yul\":1610:1758   */\n      pop\n      pop\n      pop\n      jump\t// out\n        /* \"#utility.yul\":1764:2189   */\n    tag_101:\n        /* \"#utility.yul\":1842:1847   */\n      0x00\n        /* \"#utility.yul\":1867:1933   */\n      tag_164\n        /* \"#utility.yul\":1883:1932   */\n      tag_165\n        /* \"#utility.yul\":1925:1931   */\n      dup5\n        /* \"#utility.yul\":1883:1932   */\n      tag_99\n      jump\t// in\n    tag_165:\n        /* \"#utility.yul\":1867:1933   */\n      tag_98\n      jump\t// in\n    tag_164:\n        /* \"#utility.yul\":1858:1933   */\n      swap1\n      pop\n        /* \"#utility.yul\":1956:1962   */\n      dup3\n        /* \"#utility.yul\":1949:1954   */\n      dup2\n        /* \"#utility.yul\":1942:1963   */\n      mstore\n        /* \"#utility.yul\":1994:1998   */\n      0x20\n        /* \"#utility.yul\":1987:1992   */\n      dup2\n        /* \"#utility.yul\":1983:1999   */\n      add\n        /* \"#utility.yul\":2032:2035   */\n      dup5\n        /* \"#utility.yul\":2023:2029   */\n      dup5\n        /* \"#utility.yul\":2018:2021   */\n      dup5\n        /* \"#utility.yul\":2014:2030   */\n      add\n        /* \"#utility.yul\":2011:2036   */\n      gt\n        /* \"#utility.yul\":2008:2120   */\n      iszero\n      tag_166\n      jumpi\n        /* \"#utility.yul\":2039:2118   */\n      tag_167\n      tag_94\n      jump\t// in\n    tag_167:\n        /* \"#utility.yul\":2008:2120   */\n    tag_166:\n        /* \"#utility.yul\":2129:2183   */\n      tag_168\n        /* \"#utility.yul\":2176:2182   */\n      dup5\n        /* \"#utility.yul\":2171:2174   */\n      dup3\n        /* \"#utility.yul\":2166:2169   */\n      dup6\n        /* \"#utility.yul\":2129:2183   */\n      tag_100\n      jump\t// in\n    tag_168:\n        /* \"#utility.yul\":1848:2189   */\n      pop\n        /* \"#utility.yul\":1764:2189   */\n      swap4\n      swap3\n      pop\n      pop\n      pop\n      jump\t// out\n        /* \"#utility.yul\":2209:2549   */\n    tag_102:\n        /* \"#utility.yul\":2265:2270   */\n      0x00\n        /* \"#utility.yul\":2314:2317   */\n      dup3\n        /* \"#utility.yul\":2307:2311   */\n      0x1f\n        /* \"#utility.yul\":2299:2305   */\n      dup4\n        /* \"#utility.yul\":2295:2312   */\n      add\n        /* \"#utility.yul\":2291:2318   */\n      slt\n        /* \"#utility.yul\":2281:2403   */\n      tag_170\n      jumpi\n        /* \"#utility.yul\":2322:2401   */\n      tag_171\n      tag_93\n      jump\t// in\n    tag_171:\n        /* \"#utility.yul\":2281:2403   */\n    tag_170:\n        /* \"#utility.yul\":2439:2445   */\n      dup2\n        /* \"#utility.yul\":2426:2446   */\n      calldataload\n        /* \"#utility.yul\":2464:2543   */\n      tag_172\n        /* \"#utility.yul\":2539:2542   */\n      dup5\n        /* \"#utility.yul\":2531:2537   */\n      dup3\n        /* \"#utility.yul\":2524:2528   */\n      0x20\n        /* \"#utility.yul\":2516:2522   */\n      dup7\n        /* \"#utility.yul\":2512:2529   */\n      add\n        /* \"#utility.yul\":2464:2543   */\n      tag_101\n      jump\t// in\n    tag_172:\n        /* \"#utility.yul\":2455:2543   */\n      swap2\n      pop\n        /* \"#utility.yul\":2271:2549   */\n      pop\n        /* \"#utility.yul\":2209:2549   */\n      swap3\n      swap2\n      pop\n      pop\n      jump\t// out\n        /* \"#utility.yul\":2555:2632   */\n    tag_103:\n        /* \"#utility.yul\":2592:2599   */\n      0x00\n        /* \"#utility.yul\":2621:2626   */\n      dup2\n        /* \"#utility.yul\":2610:2626   */\n      swap1\n      pop\n        /* \"#utility.yul\":2555:2632   */\n      swap2\n      swap1\n      pop\n      jump\t// out\n        /* \"#utility.yul\":2638:2760   */\n    tag_104:\n        /* \"#utility.yul\":2711:2735   */\n      tag_175\n        /* \"#utility.yul\":2729:2734   */\n      dup2\n        /* \"#utility.yul\":2711:2735   */\n      tag_103\n      jump\t// in\n    tag_175:\n        /* \"#utility.yul\":2704:2709   */\n      dup2\n        /* \"#utility.yul\":2701:2736   */\n      eq\n        /* \"#utility.yul\":2691:2754   */\n      tag_176\n      jumpi\n        /* \"#utility.yul\":2750:2751   */\n      0x00\n        /* \"#utility.yul\":2747:2748   */\n      dup1\n        /* \"#utility.yul\":2740:2752   */\n      revert\n        /* \"#utility.yul\":2691:2754   */\n    tag_176:\n        /* \"#utility.yul\":2638:2760   */\n      pop\n      jump\t// out\n        /* \"#utility.yul\":2766:2905   */\n    tag_105:\n        /* \"#utility.yul\":2812:2817   */\n      0x00\n        /* \"#utility.yul\":2850:2856   */\n      dup2\n        /* \"#utility.yul\":2837:2857   */\n      calldataload\n        /* \"#utility.yul\":2828:2857   */\n      swap1\n      pop\n        /* \"#utility.yul\":2866:2899   */\n      tag_178\n        /* \"#utility.yul\":2893:2898   */\n      dup2\n        /* \"#utility.yul\":2866:2899   */\n      tag_104\n      jump\t// in\n    tag_178:\n        /* \"#utility.yul\":2766:2905   */\n      swap3\n      swap2\n      pop\n      pop\n      jump\t// out\n        /* \"#utility.yul\":2911:3565   */\n    tag_12:\n        /* \"#utility.yul\":2989:2995   */\n      0x00\n        /* \"#utility.yul\":2997:3003   */\n      dup1\n        /* \"#utility.yul\":3046:3048   */\n      0x40\n        /* \"#utility.yul\":3034:3043   */\n      dup4\n        /* \"#utility.yul\":3025:3032   */\n      dup6\n        /* \"#utility.yul\":3021:3044   */\n      sub\n        /* \"#utility.yul\":3017:3049   */\n      slt\n        /* \"#utility.yul\":3014:3133   */\n      iszero\n      tag_180\n      jumpi\n        /* \"#utility.yul\":3052:3131   */\n      tag_181\n      tag_91\n      jump\t// in\n    tag_181:\n        /* \"#utility.yul\":3014:3133   */\n    tag_180:\n        /* \"#utility.yul\":3200:3201   */\n      0x00\n        /* \"#utility.yul\":3189:3198   */\n      dup4\n        /* \"#utility.yul\":3185:3202   */\n      add\n        /* \"#utility.yul\":3172:3203   */\n      calldataload\n        /* \"#utility.yul\":3230:3248   */\n      0xffffffffffffffff\n        /* \"#utility.yul\":3222:3228   */\n      dup2\n        /* \"#utility.yul\":3219:3249   */\n      gt\n        /* \"#utility.yul\":3216:3333   */\n      iszero\n      tag_182\n      jumpi\n        /* \"#utility.yul\":3252:3331   */\n      tag_183\n      tag_92\n      jump\t// in\n    tag_183:\n        /* \"#utility.yul\":3216:3333   */\n    tag_182:\n        /* \"#utility.yul\":3357:3420   */\n      tag_184\n        /* \"#utility.yul\":3412:3419   */\n      dup6\n        /* \"#utility.yul\":3403:3409   */\n      dup3\n        /* \"#utility.yul\":3392:3401   */\n      dup7\n        /* \"#utility.yul\":3388:3410   */\n      add\n        /* \"#utility.yul\":3357:3420   */\n      tag_102\n      jump\t// in\n    tag_184:\n        /* \"#utility.yul\":3347:3420   */\n      swap3\n      pop\n        /* \"#utility.yul\":3143:3430   */\n      pop\n        /* \"#utility.yul\":3469:3471   */\n      0x20\n        /* \"#utility.yul\":3495:3548   */\n      tag_185\n        /* \"#utility.yul\":3540:3547   */\n      dup6\n        /* \"#utility.yul\":3531:3537   */\n      dup3\n        /* \"#utility.yul\":3520:3529   */\n      dup7\n        /* \"#utility.yul\":3516:3538   */\n      add\n        /* \"#utility.yul\":3495:3548   */\n      tag_105\n      jump\t// in\n    tag_185:\n        /* \"#utility.yul\":3485:3548   */\n      swap2\n      pop\n        /* \"#utility.yul\":3440:3558   */\n      pop\n        /* \"#utility.yul\":2911:3565   */\n      swap3\n      pop\n      swap3\n      swap1\n      pop\n      jump\t// out\n        /* \"#utility.yul\":3571:3697   */\n    tag_106:\n        /* \"#utility.yul\":3608:3615   */\n      0x00\n        /* \"#utility.yul\":3648:3690   */\n      0xffffffffffffffffffffffffffffffffffffffff\n        /* \"#utility.yul\":3641:3646   */\n      dup3\n        /* \"#utility.yul\":3637:3691   */\n      and\n        /* \"#utility.yul\":3626:3691   */\n      swap1\n      pop\n        /* \"#utility.yul\":3571:3697   */\n      swap2\n      swap1\n      pop\n      jump\t// out\n        /* \"#utility.yul\":3703:3799   */\n    tag_107:\n        /* \"#utility.yul\":3740:3747   */\n      0x00\n        /* \"#utility.yul\":3769:3793   */\n      tag_188\n        /* \"#utility.yul\":3787:3792   */\n      dup3\n        /* \"#utility.yul\":3769:3793   */\n      tag_106\n      jump\t// in\n    tag_188:\n        /* \"#utility.yul\":3758:3793   */\n      swap1\n      pop\n        /* \"#utility.yul\":3703:3799   */\n      swap2\n      swap1\n      pop\n      jump\t// out\n        /* \"#utility.yul\":3805:3923   */\n    tag_108:\n        /* \"#utility.yul\":3892:3916   */\n      tag_190\n        /* \"#utility.yul\":3910:3915   */\n      dup2\n        /* \"#utility.yul\":3892:3916   */\n      tag_107\n      jump\t// in\n    tag_190:\n        /* \"#utility.yul\":3887:3890   */\n      dup3\n        /* \"#utility.yul\":3880:3917   */\n      mstore\n        /* \"#utility.yul\":3805:3923   */\n      pop\n      pop\n      jump\t// out\n        /* \"#utility.yul\":3929:4151   */\n    tag_26:\n        /* \"#utility.yul\":4022:4026   */\n      0x00\n        /* \"#utility.yul\":4060:4062   */\n      0x20\n        /* \"#utility.yul\":4049:4058   */\n      dup3\n        /* \"#utility.yul\":4045:4063   */\n      add\n        /* \"#utility.yul\":4037:4063   */\n      swap1\n      pop\n        /* \"#utility.yul\":4073:4144   */\n      tag_192\n        /* \"#utility.yul\":4141:4142   */\n      0x00\n        /* \"#utility.yul\":4130:4139   */\n      dup4\n        /* \"#utility.yul\":4126:4143   */\n      add\n        /* \"#utility.yul\":4117:4123   */\n      dup5\n        /* \"#utility.yul\":4073:4144   */\n      tag_108\n      jump\t// in\n    tag_192:\n        /* \"#utility.yul\":3929:4151   */\n      swap3\n      swap2\n      pop\n      pop\n      jump\t// out\n        /* \"#utility.yul\":4157:4666   */\n    tag_30:\n        /* \"#utility.yul\":4226:4232   */\n      0x00\n        /* \"#utility.yul\":4275:4277   */\n      0x20\n        /* \"#utility.yul\":4263:4272   */\n      dup3\n        /* \"#utility.yul\":4254:4261   */\n      dup5\n        /* \"#utility.yul\":4250:4273   */\n      sub\n        /* \"#utility.yul\":4246:4278   */\n      slt\n        /* \"#utility.yul\":4243:4362   */\n      iszero\n      tag_194\n      jumpi\n        /* \"#utility.yul\":4281:4360   */\n      tag_195\n      tag_91\n      jump\t// in\n    tag_195:\n        /* \"#utility.yul\":4243:4362   */\n    tag_194:\n        /* \"#utility.yul\":4429:4430   */\n      0x00\n        /* \"#utility.yul\":4418:4427   */\n      dup3\n        /* \"#utility.yul\":4414:4431   */\n      add\n        /* \"#utility.yul\":4401:4432   */\n      calldataload\n        /* \"#utility.yul\":4459:4477   */\n      0xffffffffffffffff\n        /* \"#utility.yul\":4451:4457   */\n      dup2\n        /* \"#utility.yul\":4448:4478   */\n      gt\n        /* \"#utility.yul\":4445:4562   */\n      iszero\n      tag_196\n      jumpi\n        /* \"#utility.yul\":4481:4560   */\n      tag_197\n      tag_92\n      jump\t// in\n    tag_197:\n        /* \"#utility.yul\":4445:4562   */\n    tag_196:\n        /* \"#utility.yul\":4586:4649   */\n      tag_198\n        /* \"#utility.yul\":4641:4648   */\n      dup5\n        /* \"#utility.yul\":4632:4638   */\n      dup3\n        /* \"#utility.yul\":4621:4630   */\n      dup6\n        /* \"#utility.yul\":4617:4639   */\n      add\n        /* \"#utility.yul\":4586:4649   */\n      tag_102\n      jump\t// in\n    tag_198:\n        /* \"#utility.yul\":4576:4649   */\n      swap2\n      pop\n        /* \"#utility.yul\":4372:4659   */\n      pop\n        /* \"#utility.yul\":4157:4666   */\n      swap3\n      swap2\n      pop\n      pop\n      jump\t// out\n        /* \"#utility.yul\":4672:4762   */\n    tag_109:\n        /* \"#utility.yul\":4706:4713   */\n      0x00\n        /* \"#utility.yul\":4749:4754   */\n      dup2\n        /* \"#utility.yul\":4742:4755   */\n      iszero\n        /* \"#utility.yul\":4735:4756   */\n      iszero\n        /* \"#utility.yul\":4724:4756   */\n      swap1\n      pop\n        /* \"#utility.yul\":4672:4762   */\n      swap2\n      swap1\n      pop\n      jump\t// out\n        /* \"#utility.yul\":4768:4877   */\n    tag_110:\n        /* \"#utility.yul\":4849:4870   */\n      tag_201\n        /* \"#utility.yul\":4864:4869   */\n      dup2\n        /* \"#utility.yul\":4849:4870   */\n      tag_109\n      jump\t// in\n    tag_201:\n        /* \"#utility.yul\":4844:4847   */\n      dup3\n        /* \"#utility.yul\":4837:4871   */\n      mstore\n        /* \"#utility.yul\":4768:4877   */\n      pop\n      pop\n      jump\t// out\n        /* \"#utility.yul\":4883:5093   */\n    tag_33:\n        /* \"#utility.yul\":4970:4974   */\n      0x00\n        /* \"#utility.yul\":5008:5010   */\n      0x20\n        /* \"#utility.yul\":4997:5006   */\n      dup3\n        /* \"#utility.yul\":4993:5011   */\n      add\n        /* \"#utility.yul\":4985:5011   */\n      swap1\n      pop\n        /* \"#utility.yul\":5021:5086   */\n      tag_203\n        /* \"#utility.yul\":5083:5084   */\n      0x00\n        /* \"#utility.yul\":5072:5081   */\n      dup4\n        /* \"#utility.yul\":5068:5085   */\n      add\n        /* \"#utility.yul\":5059:5065   */\n      dup5\n        /* \"#utility.yul\":5021:5086   */\n      tag_110\n      jump\t// in\n    tag_203:\n        /* \"#utility.yul\":4883:5093   */\n      swap3\n      swap2\n      pop\n      pop\n      jump\t// out\n        /* \"#utility.yul\":5099:5198   */\n    tag_111:\n        /* \"#utility.yul\":5151:5157   */\n      0x00\n        /* \"#utility.yul\":5185:5190   */\n      dup2\n        /* \"#utility.yul\":5179:5191   */\n      mload\n        /* \"#utility.yul\":5169:5191   */\n      swap1\n      pop\n        /* \"#utility.yul\":5099:5198   */\n      swap2\n      swap1\n      pop\n      jump\t// out\n        /* \"#utility.yul\":5204:5373   */\n    tag_112:\n        /* \"#utility.yul\":5288:5299   */\n      0x00\n        /* \"#utility.yul\":5322:5328   */\n      dup3\n        /* \"#utility.yul\":5317:5320   */\n      dup3\n        /* \"#utility.yul\":5310:5329   */\n      mstore\n        /* \"#utility.yul\":5362:5366   */\n      0x20\n        /* \"#utility.yul\":5357:5360   */\n      dup3\n        /* \"#utility.yul\":5353:5367   */\n      add\n        /* \"#utility.yul\":5338:5367   */\n      swap1\n      pop\n        /* \"#utility.yul\":5204:5373   */\n      swap3\n      swap2\n      pop\n      pop\n      jump\t// out\n        /* \"#utility.yul\":5379:5518   */\n    tag_113:\n        /* \"#utility.yul\":5468:5474   */\n      dup3\n        /* \"#utility.yul\":5463:5466   */\n      dup2\n        /* \"#utility.yul\":5458:5461   */\n      dup4\n        /* \"#utility.yul\":5452:5475   */\n      mcopy\n        /* \"#utility.yul\":5509:5510   */\n      0x00\n        /* \"#utility.yul\":5500:5506   */\n      dup4\n        /* \"#utility.yul\":5495:5498   */\n      dup4\n        /* \"#utility.yul\":5491:5507   */\n      add\n        /* \"#utility.yul\":5484:5511   */\n      mstore\n        /* \"#utility.yul\":5379:5518   */\n      pop\n      pop\n      pop\n      jump\t// out\n        /* \"#utility.yul\":5524:5901   */\n    tag_114:\n        /* \"#utility.yul\":5612:5615   */\n      0x00\n        /* \"#utility.yul\":5640:5679   */\n      tag_208\n        /* \"#utility.yul\":5673:5678   */\n      dup3\n        /* \"#utility.yul\":5640:5679   */\n      tag_111\n      jump\t// in\n    tag_208:\n        /* \"#utility.yul\":5695:5766   */\n      tag_209\n        /* \"#utility.yul\":5759:5765   */\n      dup2\n        /* \"#utility.yul\":5754:5757   */\n      dup6\n        /* \"#utility.yul\":5695:5766   */\n      tag_112\n      jump\t// in\n    tag_209:\n        /* \"#utility.yul\":5688:5766   */\n      swap4\n      pop\n        /* \"#utility.yul\":5775:5840   */\n      tag_210\n        /* \"#utility.yul\":5833:5839   */\n      dup2\n        /* \"#utility.yul\":5828:5831   */\n      dup6\n        /* \"#utility.yul\":5821:5825   */\n      0x20\n        /* \"#utility.yul\":5814:5819   */\n      dup7\n        /* \"#utility.yul\":5810:5826   */\n      add\n        /* \"#utility.yul\":5775:5840   */\n      tag_113\n      jump\t// in\n    tag_210:\n        /* \"#utility.yul\":5865:5894   */\n      tag_211\n        /* \"#utility.yul\":5887:5893   */\n      dup2\n        /* \"#utility.yul\":5865:5894   */\n      tag_95\n      jump\t// in\n    tag_211:\n        /* \"#utility.yul\":5860:5863   */\n      dup5\n        /* \"#utility.yul\":5856:5895   */\n      add\n        /* \"#utility.yul\":5849:5895   */\n      swap2\n      pop\n        /* \"#utility.yul\":5616:5901   */\n      pop\n        /* \"#utility.yul\":5524:5901   */\n      swap3\n      swap2\n      pop\n      pop\n      jump\t// out\n        /* \"#utility.yul\":5907:6025   */\n    tag_115:\n        /* \"#utility.yul\":5994:6018   */\n      tag_213\n        /* \"#utility.yul\":6012:6017   */\n      dup2\n        /* \"#utility.yul\":5994:6018   */\n      tag_103\n      jump\t// in\n    tag_213:\n        /* \"#utility.yul\":5989:5992   */\n      dup3\n        /* \"#utility.yul\":5982:6019   */\n      mstore\n        /* \"#utility.yul\":5907:6025   */\n      pop\n      pop\n      jump\t// out\n        /* \"#utility.yul\":6031:6454   */\n    tag_39:\n        /* \"#utility.yul\":6172:6176   */\n      0x00\n        /* \"#utility.yul\":6210:6212   */\n      0x40\n        /* \"#utility.yul\":6199:6208   */\n      dup3\n        /* \"#utility.yul\":6195:6213   */\n      add\n        /* \"#utility.yul\":6187:6213   */\n      swap1\n      pop\n        /* \"#utility.yul\":6259:6268   */\n      dup2\n        /* \"#utility.yul\":6253:6257   */\n      dup2\n        /* \"#utility.yul\":6249:6269   */\n      sub\n        /* \"#utility.yul\":6245:6246   */\n      0x00\n        /* \"#utility.yul\":6234:6243   */\n      dup4\n        /* \"#utility.yul\":6230:6247   */\n      add\n        /* \"#utility.yul\":6223:6270   */\n      mstore\n        /* \"#utility.yul\":6287:6365   */\n      tag_215\n        /* \"#utility.yul\":6360:6364   */\n      dup2\n        /* \"#utility.yul\":6351:6357   */\n      dup6\n        /* \"#utility.yul\":6287:6365   */\n      tag_114\n      jump\t// in\n    tag_215:\n        /* \"#utility.yul\":6279:6365   */\n      swap1\n      pop\n        /* \"#utility.yul\":6375:6447   */\n      tag_216\n        /* \"#utility.yul\":6443:6445   */\n      0x20\n        /* \"#utility.yul\":6432:6441   */\n      dup4\n        /* \"#utility.yul\":6428:6446   */\n      add\n        /* \"#utility.yul\":6419:6425   */\n      dup5\n        /* \"#utility.yul\":6375:6447   */\n      tag_115\n      jump\t// in\n    tag_216:\n        /* \"#utility.yul\":6031:6454   */\n      swap4\n      swap3\n      pop\n      pop\n      pop\n      jump\t// out\n        /* \"#utility.yul\":6460:6631   */\n    tag_116:\n        /* \"#utility.yul\":6600:6623   */\n      0x43727970746f20646f6573206e6f742065786973740000000000000000000000\n        /* \"#utility.yul\":6596:6597   */\n      0x00\n        /* \"#utility.yul\":6588:6594   */\n      dup3\n        /* \"#utility.yul\":6584:6598   */\n      add\n        /* \"#utility.yul\":6577:6624   */\n      mstore\n        /* \"#utility.yul\":6460:6631   */\n      pop\n      jump\t// out\n        /* \"#utility.yul\":6637:7003   */\n    tag_117:\n        /* \"#utility.yul\":6779:6782   */\n      0x00\n        /* \"#utility.yul\":6800:6867   */\n      tag_219\n        /* \"#utility.yul\":6864:6866   */\n      0x15\n        /* \"#utility.yul\":6859:6862   */\n      dup4\n        /* \"#utility.yul\":6800:6867   */\n      tag_112\n      jump\t// in\n    tag_219:\n        /* \"#utility.yul\":6793:6867   */\n      swap2\n      pop\n        /* \"#utility.yul\":6876:6969   */\n      tag_220\n        /* \"#utility.yul\":6965:6968   */\n      dup3\n        /* \"#utility.yul\":6876:6969   */\n      tag_116\n      jump\t// in\n    tag_220:\n        /* \"#utility.yul\":6994:6996   */\n      0x20\n        /* \"#utility.yul\":6989:6992   */\n      dup3\n        /* \"#utility.yul\":6985:6997   */\n      add\n        /* \"#utility.yul\":6978:6997   */\n      swap1\n      pop\n        /* \"#utility.yul\":6637:7003   */\n      swap2\n      swap1\n      pop\n      jump\t// out\n        /* \"#utility.yul\":7009:7428   */\n    tag_48:\n        /* \"#utility.yul\":7175:7179   */\n      0x00\n        /* \"#utility.yul\":7213:7215   */\n      0x20\n        /* \"#utility.yul\":7202:7211   */\n      dup3\n        /* \"#utility.yul\":7198:7216   */\n      add\n        /* \"#utility.yul\":7190:7216   */\n      swap1\n      pop\n        /* \"#utility.yul\":7262:7271   */\n      dup2\n        /* \"#utility.yul\":7256:7260   */\n      dup2\n        /* \"#utility.yul\":7252:7272   */\n      sub\n        /* \"#utility.yul\":7248:7249   */\n      0x00\n        /* \"#utility.yul\":7237:7246   */\n      dup4\n        /* \"#utility.yul\":7233:7250   */\n      add\n        /* \"#utility.yul\":7226:7273   */\n      mstore\n        /* \"#utility.yul\":7290:7421   */\n      tag_222\n        /* \"#utility.yul\":7416:7420   */\n      dup2\n        /* \"#utility.yul\":7290:7421   */\n      tag_117\n      jump\t// in\n    tag_222:\n        /* \"#utility.yul\":7282:7421   */\n      swap1\n      pop\n        /* \"#utility.yul\":7009:7428   */\n      swap2\n      swap1\n      pop\n      jump\t// out\n        /* \"#utility.yul\":7434:7582   */\n    tag_118:\n        /* \"#utility.yul\":7536:7547   */\n      0x00\n        /* \"#utility.yul\":7573:7576   */\n      dup2\n        /* \"#utility.yul\":7558:7576   */\n      swap1\n      pop\n        /* \"#utility.yul\":7434:7582   */\n      swap3\n      swap2\n      pop\n      pop\n      jump\t// out\n        /* \"#utility.yul\":7588:7978   */\n    tag_119:\n        /* \"#utility.yul\":7694:7697   */\n      0x00\n        /* \"#utility.yul\":7722:7761   */\n      tag_225\n        /* \"#utility.yul\":7755:7760   */\n      dup3\n        /* \"#utility.yul\":7722:7761   */\n      tag_111\n      jump\t// in\n    tag_225:\n        /* \"#utility.yul\":7777:7866   */\n      tag_226\n        /* \"#utility.yul\":7859:7865   */\n      dup2\n        /* \"#utility.yul\":7854:7857   */\n      dup6\n        /* \"#utility.yul\":7777:7866   */\n      tag_118\n      jump\t// in\n    tag_226:\n        /* \"#utility.yul\":7770:7866   */\n      swap4\n      pop\n        /* \"#utility.yul\":7875:7940   */\n      tag_227\n        /* \"#utility.yul\":7933:7939   */\n      dup2\n        /* \"#utility.yul\":7928:7931   */\n      dup6\n        /* \"#utility.yul\":7921:7925   */\n      0x20\n        /* \"#utility.yul\":7914:7919   */\n      dup7\n        /* \"#utility.yul\":7910:7926   */\n      add\n        /* \"#utility.yul\":7875:7940   */\n      tag_113\n      jump\t// in\n    tag_227:\n        /* \"#utility.yul\":7965:7971   */\n      dup1\n        /* \"#utility.yul\":7960:7963   */\n      dup5\n        /* \"#utility.yul\":7956:7972   */\n      add\n        /* \"#utility.yul\":7949:7972   */\n      swap2\n      pop\n        /* \"#utility.yul\":7698:7978   */\n      pop\n        /* \"#utility.yul\":7588:7978   */\n      swap3\n      swap2\n      pop\n      pop\n      jump\t// out\n        /* \"#utility.yul\":7984:8259   */\n    tag_50:\n        /* \"#utility.yul\":8116:8119   */\n      0x00\n        /* \"#utility.yul\":8138:8233   */\n      tag_229\n        /* \"#utility.yul\":8229:8232   */\n      dup3\n        /* \"#utility.yul\":8220:8226   */\n      dup5\n        /* \"#utility.yul\":8138:8233   */\n      tag_119\n      jump\t// in\n    tag_229:\n        /* \"#utility.yul\":8131:8233   */\n      swap2\n      pop\n        /* \"#utility.yul\":8250:8253   */\n      dup2\n        /* \"#utility.yul\":8243:8253   */\n      swap1\n      pop\n        /* \"#utility.yul\":7984:8259   */\n      swap3\n      swap2\n      pop\n      pop\n      jump\t// out\n        /* \"#utility.yul\":8265:8445   */\n    tag_120:\n        /* \"#utility.yul\":8313:8390   */\n      0x4e487b7100000000000000000000000000000000000000000000000000000000\n        /* \"#utility.yul\":8310:8311   */\n      0x00\n        /* \"#utility.yul\":8303:8391   */\n      mstore\n        /* \"#utility.yul\":8410:8414   */\n      0x11\n        /* \"#utility.yul\":8407:8408   */\n      0x04\n        /* \"#utility.yul\":8400:8415   */\n      mstore\n        /* \"#utility.yul\":8434:8438   */\n      0x24\n        /* \"#utility.yul\":8431:8432   */\n      0x00\n        /* \"#utility.yul\":8424:8439   */\n      revert\n        /* \"#utility.yul\":8451:8861   */\n    tag_52:\n        /* \"#utility.yul\":8491:8498   */\n      0x00\n        /* \"#utility.yul\":8514:8534   */\n      tag_232\n        /* \"#utility.yul\":8532:8533   */\n      dup3\n        /* \"#utility.yul\":8514:8534   */\n      tag_103\n      jump\t// in\n    tag_232:\n        /* \"#utility.yul\":8509:8534   */\n      swap2\n      pop\n        /* \"#utility.yul\":8548:8568   */\n      tag_233\n        /* \"#utility.yul\":8566:8567   */\n      dup4\n        /* \"#utility.yul\":8548:8568   */\n      tag_103\n      jump\t// in\n    tag_233:\n        /* \"#utility.yul\":8543:8568   */\n      swap3\n      pop\n        /* \"#utility.yul\":8603:8604   */\n      dup3\n        /* \"#utility.yul\":8600:8601   */\n      dup3\n        /* \"#utility.yul\":8596:8605   */\n      mul\n        /* \"#utility.yul\":8625:8655   */\n      tag_234\n        /* \"#utility.yul\":8643:8654   */\n      dup2\n        /* \"#utility.yul\":8625:8655   */\n      tag_103\n      jump\t// in\n    tag_234:\n        /* \"#utility.yul\":8614:8655   */\n      swap2\n      pop\n        /* \"#utility.yul\":8804:8805   */\n      dup3\n        /* \"#utility.yul\":8795:8802   */\n      dup3\n        /* \"#utility.yul\":8791:8806   */\n      div\n        /* \"#utility.yul\":8788:8789   */\n      dup5\n        /* \"#utility.yul\":8785:8807   */\n      eq\n        /* \"#utility.yul\":8765:8766   */\n      dup4\n        /* \"#utility.yul\":8758:8767   */\n      iszero\n        /* \"#utility.yul\":8738:8821   */\n      or\n        /* \"#utility.yul\":8715:8854   */\n      tag_235\n      jumpi\n        /* \"#utility.yul\":8834:8852   */\n      tag_236\n      tag_120\n      jump\t// in\n    tag_236:\n        /* \"#utility.yul\":8715:8854   */\n    tag_235:\n        /* \"#utility.yul\":8499:8861   */\n      pop\n        /* \"#utility.yul\":8451:8861   */\n      swap3\n      swap2\n      pop\n      pop\n      jump\t// out\n        /* \"#utility.yul\":8867:9035   */\n    tag_121:\n        /* \"#utility.yul\":9007:9027   */\n      0x496e73756666696369656e742066756e64730000000000000000000000000000\n        /* \"#utility.yul\":9003:9004   */\n      0x00\n        /* \"#utility.yul\":8995:9001   */\n      dup3\n        /* \"#utility.yul\":8991:9005   */\n      add\n        /* \"#utility.yul\":8984:9028   */\n      mstore\n        /* \"#utility.yul\":8867:9035   */\n      pop\n      jump\t// out\n        /* \"#utility.yul\":9041:9407   */\n    tag_122:\n        /* \"#utility.yul\":9183:9186   */\n      0x00\n        /* \"#utility.yul\":9204:9271   */\n      tag_239\n        /* \"#utility.yul\":9268:9270   */\n      0x12\n        /* \"#utility.yul\":9263:9266   */\n      dup4\n        /* \"#utility.yul\":9204:9271   */\n      tag_112\n      jump\t// in\n    tag_239:\n        /* \"#utility.yul\":9197:9271   */\n      swap2\n      pop\n        /* \"#utility.yul\":9280:9373   */\n      tag_240\n        /* \"#utility.yul\":9369:9372   */\n      dup3\n        /* \"#utility.yul\":9280:9373   */\n      tag_121\n      jump\t// in\n    tag_240:\n        /* \"#utility.yul\":9398:9400   */\n      0x20\n        /* \"#utility.yul\":9393:9396   */\n      dup3\n        /* \"#utility.yul\":9389:9401   */\n      add\n        /* \"#utility.yul\":9382:9401   */\n      swap1\n      pop\n        /* \"#utility.yul\":9041:9407   */\n      swap2\n      swap1\n      pop\n      jump\t// out\n        /* \"#utility.yul\":9413:9832   */\n    tag_55:\n        /* \"#utility.yul\":9579:9583   */\n      0x00\n        /* \"#utility.yul\":9617:9619   */\n      0x20\n        /* \"#utility.yul\":9606:9615   */\n      dup3\n        /* \"#utility.yul\":9602:9620   */\n      add\n        /* \"#utility.yul\":9594:9620   */\n      swap1\n      pop\n        /* \"#utility.yul\":9666:9675   */\n      dup2\n        /* \"#utility.yul\":9660:9664   */\n      dup2\n        /* \"#utility.yul\":9656:9676   */\n      sub\n        /* \"#utility.yul\":9652:9653   */\n      0x00\n        /* \"#utility.yul\":9641:9650   */\n      dup4\n        /* \"#utility.yul\":9637:9654   */\n      add\n        /* \"#utility.yul\":9630:9677   */\n      mstore\n        /* \"#utility.yul\":9694:9825   */\n      tag_242\n        /* \"#utility.yul\":9820:9824   */\n      dup2\n        /* \"#utility.yul\":9694:9825   */\n      tag_122\n      jump\t// in\n    tag_242:\n        /* \"#utility.yul\":9686:9825   */\n      swap1\n      pop\n        /* \"#utility.yul\":9413:9832   */\n      swap2\n      swap1\n      pop\n      jump\t// out\n        /* \"#utility.yul\":9838:10059   */\n    tag_123:\n        /* \"#utility.yul\":9978:10012   */\n      0x4f6e6c79206f776e65722063616e20706572666f726d20746869732061637469\n        /* \"#utility.yul\":9974:9975   */\n      0x00\n        /* \"#utility.yul\":9966:9972   */\n      dup3\n        /* \"#utility.yul\":9962:9976   */\n      add\n        /* \"#utility.yul\":9955:10013   */\n      mstore\n        /* \"#utility.yul\":10047:10051   */\n      0x6f6e000000000000000000000000000000000000000000000000000000000000\n        /* \"#utility.yul\":10042:10044   */\n      0x20\n        /* \"#utility.yul\":10034:10040   */\n      dup3\n        /* \"#utility.yul\":10030:10045   */\n      add\n        /* \"#utility.yul\":10023:10052   */\n      mstore\n        /* \"#utility.yul\":9838:10059   */\n      pop\n      jump\t// out\n        /* \"#utility.yul\":10065:10431   */\n    tag_124:\n        /* \"#utility.yul\":10207:10210   */\n      0x00\n        /* \"#utility.yul\":10228:10295   */\n      tag_245\n        /* \"#utility.yul\":10292:10294   */\n      0x22\n        /* \"#utility.yul\":10287:10290   */\n      dup4\n        /* \"#utility.yul\":10228:10295   */\n      tag_112\n      jump\t// in\n    tag_245:\n        /* \"#utility.yul\":10221:10295   */\n      swap2\n      pop\n        /* \"#utility.yul\":10304:10397   */\n      tag_246\n        /* \"#utility.yul\":10393:10396   */\n      dup3\n        /* \"#utility.yul\":10304:10397   */\n      tag_123\n      jump\t// in\n    tag_246:\n        /* \"#utility.yul\":10422:10424   */\n      0x40\n        /* \"#utility.yul\":10417:10420   */\n      dup3\n        /* \"#utility.yul\":10413:10425   */\n      add\n        /* \"#utility.yul\":10406:10425   */\n      swap1\n      pop\n        /* \"#utility.yul\":10065:10431   */\n      swap2\n      swap1\n      pop\n      jump\t// out\n        /* \"#utility.yul\":10437:10856   */\n    tag_59:\n        /* \"#utility.yul\":10603:10607   */\n      0x00\n        /* \"#utility.yul\":10641:10643   */\n      0x20\n        /* \"#utility.yul\":10630:10639   */\n      dup3\n        /* \"#utility.yul\":10626:10644   */\n      add\n        /* \"#utility.yul\":10618:10644   */\n      swap1\n      pop\n        /* \"#utility.yul\":10690:10699   */\n      dup2\n        /* \"#utility.yul\":10684:10688   */\n      dup2\n        /* \"#utility.yul\":10680:10700   */\n      sub\n        /* \"#utility.yul\":10676:10677   */\n      0x00\n        /* \"#utility.yul\":10665:10674   */\n      dup4\n        /* \"#utility.yul\":10661:10678   */\n      add\n        /* \"#utility.yul\":10654:10701   */\n      mstore\n        /* \"#utility.yul\":10718:10849   */\n      tag_248\n        /* \"#utility.yul\":10844:10848   */\n      dup2\n        /* \"#utility.yul\":10718:10849   */\n      tag_124\n      jump\t// in\n    tag_248:\n        /* \"#utility.yul\":10710:10849   */\n      swap1\n      pop\n        /* \"#utility.yul\":10437:10856   */\n      swap2\n      swap1\n      pop\n      jump\t// out\n        /* \"#utility.yul\":10862:11033   */\n    tag_125:\n        /* \"#utility.yul\":11002:11025   */\n      0x43727970746f20616c7265616479206578697374730000000000000000000000\n        /* \"#utility.yul\":10998:10999   */\n      0x00\n        /* \"#utility.yul\":10990:10996   */\n      dup3\n        /* \"#utility.yul\":10986:11000   */\n      add\n        /* \"#utility.yul\":10979:11026   */\n      mstore\n        /* \"#utility.yul\":10862:11033   */\n      pop\n      jump\t// out\n        /* \"#utility.yul\":11039:11405   */\n    tag_126:\n        /* \"#utility.yul\":11181:11184   */\n      0x00\n        /* \"#utility.yul\":11202:11269   */\n      tag_251\n        /* \"#utility.yul\":11266:11268   */\n      0x15\n        /* \"#utility.yul\":11261:11264   */\n      dup4\n        /* \"#utility.yul\":11202:11269   */\n      tag_112\n      jump\t// in\n    tag_251:\n        /* \"#utility.yul\":11195:11269   */\n      swap2\n      pop\n        /* \"#utility.yul\":11278:11371   */\n      tag_252\n        /* \"#utility.yul\":11367:11370   */\n      dup3\n        /* \"#utility.yul\":11278:11371   */\n      tag_125\n      jump\t// in\n    tag_252:\n        /* \"#utility.yul\":11396:11398   */\n      0x20\n        /* \"#utility.yul\":11391:11394   */\n      dup3\n        /* \"#utility.yul\":11387:11399   */\n      add\n        /* \"#utility.yul\":11380:11399   */\n      swap1\n      pop\n        /* \"#utility.yul\":11039:11405   */\n      swap2\n      swap1\n      pop\n      jump\t// out\n        /* \"#utility.yul\":11411:11830   */\n    tag_73:\n        /* \"#utility.yul\":11577:11581   */\n      0x00\n        /* \"#utility.yul\":11615:11617   */\n      0x20\n        /* \"#utility.yul\":11604:11613   */\n      dup3\n        /* \"#utility.yul\":11600:11618   */\n      add\n        /* \"#utility.yul\":11592:11618   */\n      swap1\n      pop\n        /* \"#utility.yul\":11664:11673   */\n      dup2\n        /* \"#utility.yul\":11658:11662   */\n      dup2\n        /* \"#utility.yul\":11654:11674   */\n      sub\n        /* \"#utility.yul\":11650:11651   */\n      0x00\n        /* \"#utility.yul\":11639:11648   */\n      dup4\n        /* \"#utility.yul\":11635:11652   */\n      add\n        /* \"#utility.yul\":11628:11675   */\n      mstore\n        /* \"#utility.yul\":11692:11823   */\n      tag_254\n        /* \"#utility.yul\":11818:11822   */\n      dup2\n        /* \"#utility.yul\":11692:11823   */\n      tag_126\n      jump\t// in\n    tag_254:\n        /* \"#utility.yul\":11684:11823   */\n      swap1\n      pop\n        /* \"#utility.yul\":11411:11830   */\n      swap2\n      swap1\n      pop\n      jump\t// out\n        /* \"#utility.yul\":11836:12016   */\n    tag_127:\n        /* \"#utility.yul\":11884:11961   */\n      0x4e487b7100000000000000000000000000000000000000000000000000000000\n        /* \"#utility.yul\":11881:11882   */\n      0x00\n        /* \"#utility.yul\":11874:11962   */\n      mstore\n        /* \"#utility.yul\":11981:11985   */\n      0x22\n        /* \"#utility.yul\":11978:11979   */\n      0x04\n        /* \"#utility.yul\":11971:11986   */\n      mstore\n        /* \"#utility.yul\":12005:12009   */\n      0x24\n        /* \"#utility.yul\":12002:12003   */\n      0x00\n        /* \"#utility.yul\":11995:12010   */\n      revert\n        /* \"#utility.yul\":12022:12342   */\n    tag_80:\n        /* \"#utility.yul\":12066:12072   */\n      0x00\n        /* \"#utility.yul\":12103:12104   */\n      0x02\n        /* \"#utility.yul\":12097:12101   */\n      dup3\n        /* \"#utility.yul\":12093:12105   */\n      div\n        /* \"#utility.yul\":12083:12105   */\n      swap1\n      pop\n        /* \"#utility.yul\":12150:12151   */\n      0x01\n        /* \"#utility.yul\":12144:12148   */\n      dup3\n        /* \"#utility.yul\":12140:12152   */\n      and\n        /* \"#utility.yul\":12171:12189   */\n      dup1\n        /* \"#utility.yul\":12161:12242   */\n      tag_257\n      jumpi\n        /* \"#utility.yul\":12227:12231   */\n      0x7f\n        /* \"#utility.yul\":12219:12225   */\n      dup3\n        /* \"#utility.yul\":12215:12232   */\n      and\n        /* \"#utility.yul\":12205:12232   */\n      swap2\n      pop\n        /* \"#utility.yul\":12161:12242   */\n    tag_257:\n        /* \"#utility.yul\":12289:12291   */\n      0x20\n        /* \"#utility.yul\":12281:12287   */\n      dup3\n        /* \"#utility.yul\":12278:12292   */\n      lt\n        /* \"#utility.yul\":12258:12276   */\n      dup2\n        /* \"#utility.yul\":12255:12293   */\n      sub\n        /* \"#utility.yul\":12252:12336   */\n      tag_258\n      jumpi\n        /* \"#utility.yul\":12308:12326   */\n      tag_259\n      tag_127\n      jump\t// in\n    tag_259:\n        /* \"#utility.yul\":12252:12336   */\n    tag_258:\n        /* \"#utility.yul\":12073:12342   */\n      pop\n        /* \"#utility.yul\":12022:12342   */\n      swap2\n      swap1\n      pop\n      jump\t// out\n        /* \"#utility.yul\":12348:12489   */\n    tag_128:\n        /* \"#utility.yul\":12397:12401   */\n      0x00\n        /* \"#utility.yul\":12420:12423   */\n      dup2\n        /* \"#utility.yul\":12412:12423   */\n      swap1\n      pop\n        /* \"#utility.yul\":12443:12446   */\n      dup2\n        /* \"#utility.yul\":12440:12441   */\n      0x00\n        /* \"#utility.yul\":12433:12447   */\n      mstore\n        /* \"#utility.yul\":12477:12481   */\n      0x20\n        /* \"#utility.yul\":12474:12475   */\n      0x00\n        /* \"#utility.yul\":12464:12482   */\n      keccak256\n        /* \"#utility.yul\":12456:12482   */\n      swap1\n      pop\n        /* \"#utility.yul\":12348:12489   */\n      swap2\n      swap1\n      pop\n      jump\t// out\n        /* \"#utility.yul\":12495:12588   */\n    tag_129:\n        /* \"#utility.yul\":12532:12538   */\n      0x00\n        /* \"#utility.yul\":12579:12581   */\n      0x20\n        /* \"#utility.yul\":12574:12576   */\n      0x1f\n        /* \"#utility.yul\":12567:12572   */\n      dup4\n        /* \"#utility.yul\":12563:12577   */\n      add\n        /* \"#utility.yul\":12559:12582   */\n      div\n        /* \"#utility.yul\":12549:12582   */\n      swap1\n      pop\n        /* \"#utility.yul\":12495:12588   */\n      swap2\n      swap1\n      pop\n      jump\t// out\n        /* \"#utility.yul\":12594:12701   */\n    tag_130:\n        /* \"#utility.yul\":12638:12646   */\n      0x00\n        /* \"#utility.yul\":12688:12693   */\n      dup3\n        /* \"#utility.yul\":12682:12686   */\n      dup3\n        /* \"#utility.yul\":12678:12694   */\n      shl\n        /* \"#utility.yul\":12657:12694   */\n      swap1\n      pop\n        /* \"#utility.yul\":12594:12701   */\n      swap3\n      swap2\n      pop\n      pop\n      jump\t// out\n        /* \"#utility.yul\":12707:13100   */\n    tag_131:\n        /* \"#utility.yul\":12776:12782   */\n      0x00\n        /* \"#utility.yul\":12826:12827   */\n      0x08\n        /* \"#utility.yul\":12814:12824   */\n      dup4\n        /* \"#utility.yul\":12810:12828   */\n      mul\n        /* \"#utility.yul\":12849:12946   */\n      tag_264\n        /* \"#utility.yul\":12879:12945   */\n      0xffffffffffffffffffffffffffffffffffffffffffffffffffffffffffffffff\n        /* \"#utility.yul\":12868:12877   */\n      dup3\n        /* \"#utility.yul\":12849:12946   */\n      tag_130\n      jump\t// in\n    tag_264:\n        /* \"#utility.yul\":12967:13006   */\n      tag_265\n        /* \"#utility.yul\":12997:13005   */\n      dup7\n        /* \"#utility.yul\":12986:12995   */\n      dup4\n        /* \"#utility.yul\":12967:13006   */\n      tag_130\n      jump\t// in\n    tag_265:\n        /* \"#utility.yul\":12955:13006   */\n      swap6\n      pop\n        /* \"#utility.yul\":13039:13043   */\n      dup1\n        /* \"#utility.yul\":13035:13044   */\n      not\n        /* \"#utility.yul\":13028:13033   */\n      dup5\n        /* \"#utility.yul\":13024:13045   */\n      and\n        /* \"#utility.yul\":13015:13045   */\n      swap4\n      pop\n        /* \"#utility.yul\":13088:13092   */\n      dup1\n        /* \"#utility.yul\":13078:13086   */\n      dup7\n        /* \"#utility.yul\":13074:13093   */\n      and\n        /* \"#utility.yul\":13067:13072   */\n      dup5\n        /* \"#utility.yul\":13064:13094   */\n      or\n        /* \"#utility.yul\":13054:13094   */\n      swap3\n      pop\n        /* \"#utility.yul\":12783:13100   */\n      pop\n      pop\n        /* \"#utility.yul\":12707:13100   */\n      swap4\n      swap3\n      pop\n      pop\n      pop\n      jump\t// out\n        /* \"#utility.yul\":13106:13166   */\n    tag_132:\n        /* \"#utility.yul\":13134:13137   */\n      0x00\n        /* \"#utility.yul\":13155:13160   */\n      dup2\n        /* \"#utility.yul\":13148:13160   */\n      swap1\n      pop\n        /* \"#utility.yul\":13106:13166   */\n      swap2\n      swap1\n      pop\n      jump\t// out\n        /* \"#utility.yul\":13172:13314   */\n    tag_133:\n        /* \"#utility.yul\":13222:13231   */\n      0x00\n        /* \"#utility.yul\":13255:13308   */\n      tag_268\n        /* \"#utility.yul\":13273:13307   */\n      tag_269\n        /* \"#utility.yul\":13282:13306   */\n      tag_270\n        /* \"#utility.yul\":13300:13305   */\n      dup5\n        /* \"#utility.yul\":13282:13306   */\n      tag_103\n      jump\t// in\n    tag_270:\n        /* \"#utility.yul\":13273:13307   */\n      tag_132\n      jump\t// in\n    tag_269:\n        /* \"#utility.yul\":13255:13308   */\n      tag_103\n      jump\t// in\n    tag_268:\n        /* \"#utility.yul\":13242:13308   */\n      swap1\n      pop\n        /* \"#utility.yul\":13172:13314   */\n      swap2\n      swap1\n      pop\n      jump\t// out\n        /* \"#utility.yul\":13320:13395   */\n    tag_134:\n        /* \"#utility.yul\":13363:13366   */\n      0x00\n        /* \"#utility.yul\":13384:13389   */\n      dup2\n        /* \"#utility.yul\":13377:13389   */\n      swap1\n      pop\n        /* \"#utility.yul\":13320:13395   */\n      swap2\n      swap1\n      pop\n      jump\t// out\n        /* \"#utility.yul\":13401:13670   */\n    tag_135:\n        /* \"#utility.yul\":13511:13550   */\n      tag_273\n        /* \"#utility.yul\":13542:13549   */\n      dup4\n        /* \"#utility.yul\":13511:13550   */\n      tag_133\n      jump\t// in\n    tag_273:\n        /* \"#utility.yul\":13572:13663   */\n      tag_274\n        /* \"#utility.yul\":13621:13662   */\n      tag_275\n        /* \"#utility.yul\":13645:13661   */\n      dup3\n        /* \"#utility.yul\":13621:13662   */\n      tag_134\n      jump\t// in\n    tag_275:\n        /* \"#utility.yul\":13613:13619   */\n      dup5\n        /* \"#utility.yul\":13606:13610   */\n      dup5\n        /* \"#utility.yul\":13600:13611   */\n      sload\n        /* \"#utility.yul\":13572:13663   */\n      tag_131\n      jump\t// in\n    tag_274:\n        /* \"#utility.yul\":13566:13570   */\n      dup3\n        /* \"#utility.yul\":13559:13664   */\n      sstore\n        /* \"#utility.yul\":13477:13670   */\n      pop\n        /* \"#utility.yul\":13401:13670   */\n      pop\n      pop\n      pop\n      jump\t// out\n        /* \"#utility.yul\":13676:13749   */\n    tag_136:\n        /* \"#utility.yul\":13721:13724   */\n      0x00\n        /* \"#utility.yul\":13676:13749   */\n      swap1\n      jump\t// out\n        /* \"#utility.yul\":13755:13944   */\n    tag_137:\n        /* \"#utility.yul\":13832:13864   */\n      tag_278\n      tag_136\n      jump\t// in\n    tag_278:\n        /* \"#utility.yul\":13873:13938   */\n      tag_279\n        /* \"#utility.yul\":13931:13937   */\n      dup2\n        /* \"#utility.yul\":13923:13929   */\n      dup5\n        /* \"#utility.yul\":13917:13921   */\n      dup5\n        /* \"#utility.yul\":13873:13938   */\n      tag_135\n      jump\t// in\n    tag_279:\n        /* \"#utility.yul\":13808:13944   */\n      pop\n        /* \"#utility.yul\":13755:13944   */\n      pop\n      pop\n      jump\t// out\n        /* \"#utility.yul\":13950:14136   */\n    tag_138:\n        /* \"#utility.yul\":14010:14130   */\n    tag_281:\n        /* \"#utility.yul\":14027:14030   */\n      dup2\n        /* \"#utility.yul\":14020:14025   */\n      dup2\n        /* \"#utility.yul\":14017:14031   */\n      lt\n        /* \"#utility.yul\":14010:14130   */\n      iszero\n      tag_283\n      jumpi\n        /* \"#utility.yul\":14081:14120   */\n      tag_284\n        /* \"#utility.yul\":14118:14119   */\n      0x00\n        /* \"#utility.yul\":14111:14116   */\n      dup3\n        /* \"#utility.yul\":14081:14120   */\n      tag_137\n      jump\t// in\n    tag_284:\n        /* \"#utility.yul\":14054:14055   */\n      0x01\n        /* \"#utility.yul\":14047:14052   */\n      dup2\n        /* \"#utility.yul\":14043:14056   */\n      add\n        /* \"#utility.yul\":14034:14056   */\n      swap1\n      pop\n        /* \"#utility.yul\":14010:14130   */\n      jump(tag_281)\n    tag_283:\n        /* \"#utility.yul\":13950:14136   */\n      pop\n      pop\n      jump\t// out\n        /* \"#utility.yul\":14142:14685   */\n    tag_139:\n        /* \"#utility.yul\":14243:14245   */\n      0x1f\n        /* \"#utility.yul\":14238:14241   */\n      dup3\n        /* \"#utility.yul\":14235:14246   */\n      gt\n        /* \"#utility.yul\":14232:14678   */\n      iszero\n      tag_286\n      jumpi\n        /* \"#utility.yul\":14277:14315   */\n      tag_287\n        /* \"#utility.yul\":14309:14314   */\n      dup2\n        /* \"#utility.yul\":14277:14315   */\n      tag_128\n      jump\t// in\n    tag_287:\n        /* \"#utility.yul\":14361:14390   */\n      tag_288\n        /* \"#utility.yul\":14379:14389   */\n      dup5\n        /* \"#utility.yul\":14361:14390   */\n      tag_129\n      jump\t// in\n    tag_288:\n        /* \"#utility.yul\":14351:14359   */\n      dup2\n        /* \"#utility.yul\":14347:14391   */\n      add\n        /* \"#utility.yul\":14544:14546   */\n      0x20\n        /* \"#utility.yul\":14532:14542   */\n      dup6\n        /* \"#utility.yul\":14529:14547   */\n      lt\n        /* \"#utility.yul\":14526:14575   */\n      iszero\n      tag_289\n      jumpi\n        /* \"#utility.yul\":14565:14573   */\n      dup2\n        /* \"#utility.yul\":14550:14573   */\n      swap1\n      pop\n        /* \"#utility.yul\":14526:14575   */\n    tag_289:\n        /* \"#utility.yul\":14588:14668   */\n      tag_290\n        /* \"#utility.yul\":14644:14666   */\n      tag_291\n        /* \"#utility.yul\":14662:14665   */\n      dup6\n        /* \"#utility.yul\":14644:14666   */\n      tag_129\n      jump\t// in\n    tag_291:\n        /* \"#utility.yul\":14634:14642   */\n      dup4\n        /* \"#utility.yul\":14630:14667   */\n      add\n        /* \"#utility.yul\":14617:14628   */\n      dup3\n        /* \"#utility.yul\":14588:14668   */\n      tag_138\n      jump\t// in\n    tag_290:\n        /* \"#utility.yul\":14247:14678   */\n      pop\n      pop\n        /* \"#utility.yul\":14232:14678   */\n    tag_286:\n        /* \"#utility.yul\":14142:14685   */\n      pop\n      pop\n      pop\n      jump\t// out\n        /* \"#utility.yul\":14691:14808   */\n    tag_140:\n        /* \"#utility.yul\":14745:14753   */\n      0x00\n        /* \"#utility.yul\":14795:14800   */\n      dup3\n        /* \"#utility.yul\":14789:14793   */\n      dup3\n        /* \"#utility.yul\":14785:14801   */\n      shr\n        /* \"#utility.yul\":14764:14801   */\n      swap1\n      pop\n        /* \"#utility.yul\":14691:14808   */\n      swap3\n      swap2\n      pop\n      pop\n      jump\t// out\n        /* \"#utility.yul\":14814:14983   */\n    tag_141:\n        /* \"#utility.yul\":14858:14864   */\n      0x00\n        /* \"#utility.yul\":14891:14942   */\n      tag_294\n        /* \"#utility.yul\":14939:14940   */\n      0x00\n        /* \"#utility.yul\":14935:14941   */\n      not\n        /* \"#utility.yul\":14927:14932   */\n      dup5\n        /* \"#utility.yul\":14924:14925   */\n      0x08\n        /* \"#utility.yul\":14920:14933   */\n      mul\n        /* \"#utility.yul\":14891:14942   */\n      tag_140\n      jump\t// in\n    tag_294:\n        /* \"#utility.yul\":14887:14943   */\n      not\n        /* \"#utility.yul\":14972:14976   */\n      dup1\n        /* \"#utility.yul\":14966:14970   */\n      dup4\n        /* \"#utility.yul\":14962:14977   */\n      and\n        /* \"#utility.yul\":14952:14977   */\n      swap2\n      pop\n        /* \"#utility.yul\":14865:14983   */\n      pop\n        /* \"#utility.yul\":14814:14983   */\n      swap3\n      swap2\n      pop\n      pop\n      jump\t// out\n        /* \"#utility.yul\":14988:15283   */\n    tag_142:\n        /* \"#utility.yul\":15064:15068   */\n      0x00\n        /* \"#utility.yul\":15210:15239   */\n      tag_296\n        /* \"#utility.yul\":15235:15238   */\n      dup4\n        /* \"#utility.yul\":15229:15233   */\n      dup4\n        /* \"#utility.yul\":15210:15239   */\n      tag_141\n      jump\t// in\n    tag_296:\n        /* \"#utility.yul\":15202:15239   */\n      swap2\n      pop\n        /* \"#utility.yul\":15272:15275   */\n      dup3\n        /* \"#utility.yul\":15269:15270   */\n      0x02\n        /* \"#utility.yul\":15265:15276   */\n      mul\n        /* \"#utility.yul\":15259:15263   */\n      dup3\n        /* \"#utility.yul\":15256:15277   */\n      or\n        /* \"#utility.yul\":15248:15277   */\n      swap1\n      pop\n        /* \"#utility.yul\":14988:15283   */\n      swap3\n      swap2\n      pop\n      pop\n      jump\t// out\n        /* \"#utility.yul\":15288:16683   */\n    tag_76:\n        /* \"#utility.yul\":15405:15442   */\n      tag_298\n        /* \"#utility.yul\":15438:15441   */\n      dup3\n        /* \"#utility.yul\":15405:15442   */\n      tag_111\n      jump\t// in\n    tag_298:\n        /* \"#utility.yul\":15507:15525   */\n      0xffffffffffffffff\n        /* \"#utility.yul\":15499:15505   */\n      dup2\n        /* \"#utility.yul\":15496:15526   */\n      gt\n        /* \"#utility.yul\":15493:15549   */\n      iszero\n      tag_299\n      jumpi\n        /* \"#utility.yul\":15529:15547   */\n      tag_300\n      tag_96\n      jump\t// in\n    tag_300:\n        /* \"#utility.yul\":15493:15549   */\n    tag_299:\n        /* \"#utility.yul\":15573:15611   */\n      tag_301\n        /* \"#utility.yul\":15605:15609   */\n      dup3\n        /* \"#utility.yul\":15599:15610   */\n      sload\n        /* \"#utility.yul\":15573:15611   */\n      tag_80\n      jump\t// in\n    tag_301:\n        /* \"#utility.yul\":15658:15725   */\n      tag_302\n        /* \"#utility.yul\":15718:15724   */\n      dup3\n        /* \"#utility.yul\":15710:15716   */\n      dup3\n        /* \"#utility.yul\":15704:15708   */\n      dup6\n        /* \"#utility.yul\":15658:15725   */\n      tag_139\n      jump\t// in\n    tag_302:\n        /* \"#utility.yul\":15752:15753   */\n      0x00\n        /* \"#utility.yul\":15776:15780   */\n      0x20\n        /* \"#utility.yul\":15763:15780   */\n      swap1\n      pop\n        /* \"#utility.yul\":15808:15810   */\n      0x1f\n        /* \"#utility.yul\":15800:15806   */\n      dup4\n        /* \"#utility.yul\":15797:15811   */\n      gt\n        /* \"#utility.yul\":15825:15826   */\n      0x01\n        /* \"#utility.yul\":15820:16438   */\n      dup2\n      eq\n      tag_304\n      jumpi\n        /* \"#utility.yul\":16482:16483   */\n      0x00\n        /* \"#utility.yul\":16499:16505   */\n      dup5\n        /* \"#utility.yul\":16496:16573   */\n      iszero\n      tag_305\n      jumpi\n        /* \"#utility.yul\":16548:16557   */\n      dup3\n        /* \"#utility.yul\":16543:16546   */\n      dup8\n        /* \"#utility.yul\":16539:16558   */\n      add\n        /* \"#utility.yul\":16533:16559   */\n      mload\n        /* \"#utility.yul\":16524:16559   */\n      swap1\n      pop\n        /* \"#utility.yul\":16496:16573   */\n    tag_305:\n        /* \"#utility.yul\":16599:16666   */\n      tag_306\n        /* \"#utility.yul\":16659:16665   */\n      dup6\n        /* \"#utility.yul\":16652:16657   */\n      dup3\n        /* \"#utility.yul\":16599:16666   */\n      tag_142\n      jump\t// in\n    tag_306:\n        /* \"#utility.yul\":16593:16597   */\n      dup7\n        /* \"#utility.yul\":16586:16667   */\n      sstore\n        /* \"#utility.yul\":16455:16677   */\n      pop\n        /* \"#utility.yul\":15790:16677   */\n      jump(tag_303)\n        /* \"#utility.yul\":15820:16438   */\n    tag_304:\n        /* \"#utility.yul\":15872:15876   */\n      0x1f\n        /* \"#utility.yul\":15868:15877   */\n      not\n        /* \"#utility.yul\":15860:15866   */\n      dup5\n        /* \"#utility.yul\":15856:15878   */\n      and\n        /* \"#utility.yul\":15906:15943   */\n      tag_307\n        /* \"#utility.yul\":15938:15942   */\n      dup7\n        /* \"#utility.yul\":15906:15943   */\n      tag_128\n      jump\t// in\n    tag_307:\n        /* \"#utility.yul\":15965:15966   */\n      0x00\n        /* \"#utility.yul\":15979:16187   */\n    tag_308:\n        /* \"#utility.yul\":15993:16000   */\n      dup3\n        /* \"#utility.yul\":15990:15991   */\n      dup2\n        /* \"#utility.yul\":15987:16001   */\n      lt\n        /* \"#utility.yul\":15979:16187   */\n      iszero\n      tag_310\n      jumpi\n        /* \"#utility.yul\":16072:16081   */\n      dup5\n        /* \"#utility.yul\":16067:16070   */\n      dup10\n        /* \"#utility.yul\":16063:16082   */\n      add\n        /* \"#utility.yul\":16057:16083   */\n      mload\n        /* \"#utility.yul\":16049:16055   */\n      dup3\n        /* \"#utility.yul\":16042:16084   */\n      sstore\n        /* \"#utility.yul\":16123:16124   */\n      0x01\n        /* \"#utility.yul\":16115:16121   */\n      dup3\n        /* \"#utility.yul\":16111:16125   */\n      add\n        /* \"#utility.yul\":16101:16125   */\n      swap2\n      pop\n        /* \"#utility.yul\":16170:16172   */\n      0x20\n        /* \"#utility.yul\":16159:16168   */\n      dup6\n        /* \"#utility.yul\":16155:16173   */\n      add\n        /* \"#utility.yul\":16142:16173   */\n      swap5\n      pop\n        /* \"#utility.yul\":16016:16020   */\n      0x20\n        /* \"#utility.yul\":16013:16014   */\n      dup2\n        /* \"#utility.yul\":16009:16021   */\n      add\n        /* \"#utility.yul\":16004:16021   */\n      swap1\n      pop\n        /* \"#utility.yul\":15979:16187   */\n      jump(tag_308)\n    tag_310:\n        /* \"#utility.yul\":16215:16221   */\n      dup7\n        /* \"#utility.yul\":16206:16213   */\n      dup4\n        /* \"#utility.yul\":16203:16222   */\n      lt\n        /* \"#utility.yul\":16200:16379   */\n      iszero\n      tag_311\n      jumpi\n        /* \"#utility.yul\":16273:16282   */\n      dup5\n        /* \"#utility.yul\":16268:16271   */\n      dup10\n        /* \"#utility.yul\":16264:16283   */\n      add\n        /* \"#utility.yul\":16258:16284   */\n      mload\n        /* \"#utility.yul\":16316:16364   */\n      tag_312\n        /* \"#utility.yul\":16358:16362   */\n      0x1f\n        /* \"#utility.yul\":16350:16356   */\n      dup10\n        /* \"#utility.yul\":16346:16363   */\n      and\n        /* \"#utility.yul\":16335:16344   */\n      dup3\n        /* \"#utility.yul\":16316:16364   */\n      tag_141\n      jump\t// in\n    tag_312:\n        /* \"#utility.yul\":16308:16314   */\n      dup4\n        /* \"#utility.yul\":16301:16365   */\n      sstore\n        /* \"#utility.yul\":16223:16379   */\n      pop\n        /* \"#utility.yul\":16200:16379   */\n    tag_311:\n        /* \"#utility.yul\":16425:16426   */\n      0x01\n        /* \"#utility.yul\":16421:16422   */\n      0x02\n        /* \"#utility.yul\":16413:16419   */\n      dup9\n        /* \"#utility.yul\":16409:16423   */\n      mul\n        /* \"#utility.yul\":16405:16427   */\n      add\n        /* \"#utility.yul\":16399:16403   */\n      dup9\n        /* \"#utility.yul\":16392:16428   */\n      sstore\n        /* \"#utility.yul\":15827:16438   */\n      pop\n      pop\n      pop\n        /* \"#utility.yul\":15790:16677   */\n    tag_303:\n      pop\n        /* \"#utility.yul\":15380:16683   */\n      pop\n      pop\n      pop\n        /* \"#utility.yul\":15288:16683   */\n      pop\n      pop\n      jump\t// out\n\n    auxdata: 0xa2646970667358221220e598728a1cf56fbd00d513f3c2f04cecd4fbef64f96b80f0fe77468fe626f1ce64736f6c634300081a0033\n}\n",
				"bytecode": {
					"linkReferences": {},
					"object": "6080604052348015600e575f80fd5b503360015f6101000a81548173ffffffffffffffffffffffffffffffffffffffff021916908373ffffffffffffffffffffffffffffffffffffffff160217905550610f058061005c5f395ff3fe60806040526004361061006f575f3560e01c80638da5cb5b1161004d5780638da5cb5b146100df5780639b69eeb314610109578063a278544a14610145578063eb4939bd146101825761006f565b806328e8fda5146100735780632b4bedb91461008f5780636edb5ff3146100b7575b5f80fd5b61008d600480360381019061008891906107b9565b6101aa565b005b34801561009a575f80fd5b506100b560048036038101906100b091906107b9565b61026e565b005b3480156100c2575f80fd5b506100dd60048036038101906100d891906107b9565b6103a7565b005b3480156100ea575f80fd5b506100f36104d6565b6040516101009190610852565b60405180910390f35b348015610114575f80fd5b5061012f600480360381019061012a919061086b565b6104fb565b60405161013c91906108cc565b60405180910390f35b348015610150575f80fd5b5061016b6004803603810190610166919061086b565b610531565b604051610179929190610954565b60405180910390f35b34801561018d575f80fd5b506101a860048036038101906101a3919061086b565b6105ee565b005b6101b3826104fb565b6101f2576040517f08c379a00000000000000000000000000000000000000000000000000000000081526004016101e9906109cc565b60405180910390fd5b5f80836040516102029190610a24565b908152602001604051809103902090505f8282600101546102239190610a67565b905080341015610268576040517f08c379a000000000000000000000000000000000000000000000000000000000815260040161025f90610af2565b60405180910390fd5b50505050565b60015f9054906101000a900473ffffffffffffffffffffffffffffffffffffffff1673ffffffffffffffffffffffffffffffffffffffff163373ffffffffffffffffffffffffffffffffffffffff16146102fd576040517f08c379a00000000000000000000000000000000000000000000000000000000081526004016102f490610b80565b60405180910390fd5b610306826104fb565b610345576040517f08c379a000000000000000000000000000000000000000000000000000000000815260040161033c906109cc565b60405180910390fd5b805f836040516103559190610a24565b9081526020016040518091039020600101819055507ff7c6e7e72e3866fde0521b64a23f9f878f60c7721e80dfc6f423ca1bc7f28c08828260405161039b929190610954565b60405180910390a15050565b60015f9054906101000a900473ffffffffffffffffffffffffffffffffffffffff1673ffffffffffffffffffffffffffffffffffffffff163373ffffffffffffffffffffffffffffffffffffffff1614610436576040517f08c379a000000000000000000000000000000000000000000000000000000000815260040161042d90610b80565b60405180910390fd5b61043f826104fb565b1561047f576040517f08c379a000000000000000000000000000000000000000000000000000000000815260040161047690610be8565b60405180910390fd5b6040518060400160405280838152602001828152505f836040516104a39190610a24565b90815260200160405180910390205f820151815f0190816104c49190610e00565b50602082015181600101559050505050565b60015f9054906101000a900473ffffffffffffffffffffffffffffffffffffffff1681565b5f805f8360405161050c9190610a24565b90815260200160405180910390205f01805461052790610c33565b9050119050919050565b5f818051602081018201805184825260208301602085012081835280955050505050505f91509050805f01805461056790610c33565b80601f016020809104026020016040519081016040528092919081815260200182805461059390610c33565b80156105de5780601f106105b5576101008083540402835291602001916105de565b820191905f5260205f20905b8154815290600101906020018083116105c157829003601f168201915b5050505050908060010154905082565b6105f7816104fb565b610636576040517f08c379a000000000000000000000000000000000000000000000000000000000815260040161062d906109cc565b60405180910390fd5b50565b5f604051905090565b5f80fd5b5f80fd5b5f80fd5b5f80fd5b5f601f19601f8301169050919050565b7f4e487b71000000000000000000000000000000000000000000000000000000005f52604160045260245ffd5b61069882610652565b810181811067ffffffffffffffff821117156106b7576106b6610662565b5b80604052505050565b5f6106c9610639565b90506106d5828261068f565b919050565b5f67ffffffffffffffff8211156106f4576106f3610662565b5b6106fd82610652565b9050602081019050919050565b828183375f83830152505050565b5f61072a610725846106da565b6106c0565b9050828152602081018484840111156107465761074561064e565b5b61075184828561070a565b509392505050565b5f82601f83011261076d5761076c61064a565b5b813561077d848260208601610718565b91505092915050565b5f819050919050565b61079881610786565b81146107a2575f80fd5b50565b5f813590506107b38161078f565b92915050565b5f80604083850312156107cf576107ce610642565b5b5f83013567ffffffffffffffff8111156107ec576107eb610646565b5b6107f885828601610759565b9250506020610809858286016107a5565b9150509250929050565b5f73ffffffffffffffffffffffffffffffffffffffff82169050919050565b5f61083c82610813565b9050919050565b61084c81610832565b82525050565b5f6020820190506108655f830184610843565b92915050565b5f602082840312156108805761087f610642565b5b5f82013567ffffffffffffffff81111561089d5761089c610646565b5b6108a984828501610759565b91505092915050565b5f8115159050919050565b6108c6816108b2565b82525050565b5f6020820190506108df5f8301846108bd565b92915050565b5f81519050919050565b5f82825260208201905092915050565b8281835e5f83830152505050565b5f610917826108e5565b61092181856108ef565b93506109318185602086016108ff565b61093a81610652565b840191505092915050565b61094e81610786565b82525050565b5f6040820190508181035f83015261096c818561090d565b905061097b6020830184610945565b9392505050565b7f43727970746f20646f6573206e6f7420657869737400000000000000000000005f82015250565b5f6109b66015836108ef565b91506109c182610982565b602082019050919050565b5f6020820190508181035f8301526109e3816109aa565b9050919050565b5f81905092915050565b5f6109fe826108e5565b610a0881856109ea565b9350610a188185602086016108ff565b80840191505092915050565b5f610a2f82846109f4565b915081905092915050565b7f4e487b71000000000000000000000000000000000000000000000000000000005f52601160045260245ffd5b5f610a7182610786565b9150610a7c83610786565b9250828202610a8a81610786565b91508282048414831517610aa157610aa0610a3a565b5b5092915050565b7f496e73756666696369656e742066756e647300000000000000000000000000005f82015250565b5f610adc6012836108ef565b9150610ae782610aa8565b602082019050919050565b5f6020820190508181035f830152610b0981610ad0565b9050919050565b7f4f6e6c79206f776e65722063616e20706572666f726d207468697320616374695f8201527f6f6e000000000000000000000000000000000000000000000000000000000000602082015250565b5f610b6a6022836108ef565b9150610b7582610b10565b604082019050919050565b5f6020820190508181035f830152610b9781610b5e565b9050919050565b7f43727970746f20616c72656164792065786973747300000000000000000000005f82015250565b5f610bd26015836108ef565b9150610bdd82610b9e565b602082019050919050565b5f6020820190508181035f830152610bff81610bc6565b9050919050565b7f4e487b71000000000000000000000000000000000000000000000000000000005f52602260045260245ffd5b5f6002820490506001821680610c4a57607f821691505b602082108103610c5d57610c5c610c06565b5b50919050565b5f819050815f5260205f209050919050565b5f6020601f8301049050919050565b5f82821b905092915050565b5f60088302610cbf7fffffffffffffffffffffffffffffffffffffffffffffffffffffffffffffffff82610c84565b610cc98683610c84565b95508019841693508086168417925050509392505050565b5f819050919050565b5f610d04610cff610cfa84610786565b610ce1565b610786565b9050919050565b5f819050919050565b610d1d83610cea565b610d31610d2982610d0b565b848454610c90565b825550505050565b5f90565b610d45610d39565b610d50818484610d14565b505050565b5b81811015610d7357610d685f82610d3d565b600181019050610d56565b5050565b601f821115610db857610d8981610c63565b610d9284610c75565b81016020851015610da1578190505b610db5610dad85610c75565b830182610d55565b50505b505050565b5f82821c905092915050565b5f610dd85f1984600802610dbd565b1980831691505092915050565b5f610df08383610dc9565b9150826002028217905092915050565b610e09826108e5565b67ffffffffffffffff811115610e2257610e21610662565b5b610e2c8254610c33565b610e37828285610d77565b5f60209050601f831160018114610e68575f8415610e56578287015190505b610e608582610de5565b865550610ec7565b601f198416610e7686610c63565b5f5b82811015610e9d57848901518255600182019150602085019450602081019050610e78565b86831015610eba5784890151610eb6601f891682610dc9565b8355505b6001600288020188555050505b50505050505056fea2646970667358221220e598728a1cf56fbd00d513f3c2f04cecd4fbef64f96b80f0fe77468fe626f1ce64736f6c634300081a0033",
					"opcodes": "PUSH1 0x80 PUSH1 0x40 MSTORE CALLVALUE DUP1 ISZERO PUSH1 0xE JUMPI PUSH0 DUP1 REVERT JUMPDEST POP CALLER PUSH1 0x1 PUSH0 PUSH2 0x100 EXP DUP2 SLOAD DUP2 PUSH20 0xFFFFFFFFFFFFFFFFFFFFFFFFFFFFFFFFFFFFFFFF MUL NOT AND SWAP1 DUP4 PUSH20 0xFFFFFFFFFFFFFFFFFFFFFFFFFFFFFFFFFFFFFFFF AND MUL OR SWAP1 SSTORE POP PUSH2 0xF05 DUP1 PUSH2 0x5C PUSH0 CODECOPY PUSH0 RETURN INVALID PUSH1 0x80 PUSH1 0x40 MSTORE PUSH1 0x4 CALLDATASIZE LT PUSH2 0x6F JUMPI PUSH0 CALLDATALOAD PUSH1 0xE0 SHR DUP1 PUSH4 0x8DA5CB5B GT PUSH2 0x4D JUMPI DUP1 PUSH4 0x8DA5CB5B EQ PUSH2 0xDF JUMPI DUP1 PUSH4 0x9B69EEB3 EQ PUSH2 0x109 JUMPI DUP1 PUSH4 0xA278544A EQ PUSH2 0x145 JUMPI DUP1 PUSH4 0xEB4939BD EQ PUSH2 0x182 JUMPI PUSH2 0x6F JUMP JUMPDEST DUP1 PUSH4 0x28E8FDA5 EQ PUSH2 0x73 JUMPI DUP1 PUSH4 0x2B4BEDB9 EQ PUSH2 0x8F JUMPI DUP1 PUSH4 0x6EDB5FF3 EQ PUSH2 0xB7 JUMPI JUMPDEST PUSH0 DUP1 REVERT JUMPDEST PUSH2 0x8D PUSH1 0x4 DUP1 CALLDATASIZE SUB DUP2 ADD SWAP1 PUSH2 0x88 SWAP2 SWAP1 PUSH2 0x7B9 JUMP JUMPDEST PUSH2 0x1AA JUMP JUMPDEST STOP JUMPDEST CALLVALUE DUP1 ISZERO PUSH2 0x9A JUMPI PUSH0 DUP1 REVERT JUMPDEST POP PUSH2 0xB5 PUSH1 0x4 DUP1 CALLDATASIZE SUB DUP2 ADD SWAP1 PUSH2 0xB0 SWAP2 SWAP1 PUSH2 0x7B9 JUMP JUMPDEST PUSH2 0x26E JUMP JUMPDEST STOP JUMPDEST CALLVALUE DUP1 ISZERO PUSH2 0xC2 JUMPI PUSH0 DUP1 REVERT JUMPDEST POP PUSH2 0xDD PUSH1 0x4 DUP1 CALLDATASIZE SUB DUP2 ADD SWAP1 PUSH2 0xD8 SWAP2 SWAP1 PUSH2 0x7B9 JUMP JUMPDEST PUSH2 0x3A7 JUMP JUMPDEST STOP JUMPDEST CALLVALUE DUP1 ISZERO PUSH2 0xEA JUMPI PUSH0 DUP1 REVERT JUMPDEST POP PUSH2 0xF3 PUSH2 0x4D6 JUMP JUMPDEST PUSH1 0x40 MLOAD PUSH2 0x100 SWAP2 SWAP1 PUSH2 0x852 JUMP JUMPDEST PUSH1 0x40 MLOAD DUP1 SWAP2 SUB SWAP1 RETURN JUMPDEST CALLVALUE DUP1 ISZERO PUSH2 0x114 JUMPI PUSH0 DUP1 REVERT JUMPDEST POP PUSH2 0x12F PUSH1 0x4 DUP1 CALLDATASIZE SUB DUP2 ADD SWAP1 PUSH2 0x12A SWAP2 SWAP1 PUSH2 0x86B JUMP JUMPDEST PUSH2 0x4FB JUMP JUMPDEST PUSH1 0x40 MLOAD PUSH2 0x13C SWAP2 SWAP1 PUSH2 0x8CC JUMP JUMPDEST PUSH1 0x40 MLOAD DUP1 SWAP2 SUB SWAP1 RETURN JUMPDEST CALLVALUE DUP1 ISZERO PUSH2 0x150 JUMPI PUSH0 DUP1 REVERT JUMPDEST POP PUSH2 0x16B PUSH1 0x4 DUP1 CALLDATASIZE SUB DUP2 ADD SWAP1 PUSH2 0x166 SWAP2 SWAP1 PUSH2 0x86B JUMP JUMPDEST PUSH2 0x531 JUMP JUMPDEST PUSH1 0x40 MLOAD PUSH2 0x179 SWAP3 SWAP2 SWAP1 PUSH2 0x954 JUMP JUMPDEST PUSH1 0x40 MLOAD DUP1 SWAP2 SUB SWAP1 RETURN JUMPDEST CALLVALUE DUP1 ISZERO PUSH2 0x18D JUMPI PUSH0 DUP1 REVERT JUMPDEST POP PUSH2 0x1A8 PUSH1 0x4 DUP1 CALLDATASIZE SUB DUP2 ADD SWAP1 PUSH2 0x1A3 SWAP2 SWAP1 PUSH2 0x86B JUMP JUMPDEST PUSH2 0x5EE JUMP JUMPDEST STOP JUMPDEST PUSH2 0x1B3 DUP3 PUSH2 0x4FB JUMP JUMPDEST PUSH2 0x1F2 JUMPI PUSH1 0x40 MLOAD PUSH32 0x8C379A000000000000000000000000000000000000000000000000000000000 DUP2 MSTORE PUSH1 0x4 ADD PUSH2 0x1E9 SWAP1 PUSH2 0x9CC JUMP JUMPDEST PUSH1 0x40 MLOAD DUP1 SWAP2 SUB SWAP1 REVERT JUMPDEST PUSH0 DUP1 DUP4 PUSH1 0x40 MLOAD PUSH2 0x202 SWAP2 SWAP1 PUSH2 0xA24 JUMP JUMPDEST SWAP1 DUP2 MSTORE PUSH1 0x20 ADD PUSH1 0x40 MLOAD DUP1 SWAP2 SUB SWAP1 KECCAK256 SWAP1 POP PUSH0 DUP3 DUP3 PUSH1 0x1 ADD SLOAD PUSH2 0x223 SWAP2 SWAP1 PUSH2 0xA67 JUMP JUMPDEST SWAP1 POP DUP1 CALLVALUE LT ISZERO PUSH2 0x268 JUMPI PUSH1 0x40 MLOAD PUSH32 0x8C379A000000000000000000000000000000000000000000000000000000000 DUP2 MSTORE PUSH1 0x4 ADD PUSH2 0x25F SWAP1 PUSH2 0xAF2 JUMP JUMPDEST PUSH1 0x40 MLOAD DUP1 SWAP2 SUB SWAP1 REVERT JUMPDEST POP POP POP POP JUMP JUMPDEST PUSH1 0x1 PUSH0 SWAP1 SLOAD SWAP1 PUSH2 0x100 EXP SWAP1 DIV PUSH20 0xFFFFFFFFFFFFFFFFFFFFFFFFFFFFFFFFFFFFFFFF AND PUSH20 0xFFFFFFFFFFFFFFFFFFFFFFFFFFFFFFFFFFFFFFFF AND CALLER PUSH20 0xFFFFFFFFFFFFFFFFFFFFFFFFFFFFFFFFFFFFFFFF AND EQ PUSH2 0x2FD JUMPI PUSH1 0x40 MLOAD PUSH32 0x8C379A000000000000000000000000000000000000000000000000000000000 DUP2 MSTORE PUSH1 0x4 ADD PUSH2 0x2F4 SWAP1 PUSH2 0xB80 JUMP JUMPDEST PUSH1 0x40 MLOAD DUP1 SWAP2 SUB SWAP1 REVERT JUMPDEST PUSH2 0x306 DUP3 PUSH2 0x4FB JUMP JUMPDEST PUSH2 0x345 JUMPI PUSH1 0x40 MLOAD PUSH32 0x8C379A000000000000000000000000000000000000000000000000000000000 DUP2 MSTORE PUSH1 0x4 ADD PUSH2 0x33C SWAP1 PUSH2 0x9CC JUMP JUMPDEST PUSH1 0x40 MLOAD DUP1 SWAP2 SUB SWAP1 REVERT JUMPDEST DUP1 PUSH0 DUP4 PUSH1 0x40 MLOAD PUSH2 0x355 SWAP2 SWAP1 PUSH2 0xA24 JUMP JUMPDEST SWAP1 DUP2 MSTORE PUSH1 0x20 ADD PUSH1 0x40 MLOAD DUP1 SWAP2 SUB SWAP1 KECCAK256 PUSH1 0x1 ADD DUP2 SWAP1 SSTORE POP PUSH32 0xF7C6E7E72E3866FDE0521B64A23F9F878F60C7721E80DFC6F423CA1BC7F28C08 DUP3 DUP3 PUSH1 0x40 MLOAD PUSH2 0x39B SWAP3 SWAP2 SWAP1 PUSH2 0x954 JUMP JUMPDEST PUSH1 0x40 MLOAD DUP1 SWAP2 SUB SWAP1 LOG1 POP POP JUMP JUMPDEST PUSH1 0x1 PUSH0 SWAP1 SLOAD SWAP1 PUSH2 0x100 EXP SWAP1 DIV PUSH20 0xFFFFFFFFFFFFFFFFFFFFFFFFFFFFFFFFFFFFFFFF AND PUSH20 0xFFFFFFFFFFFFFFFFFFFFFFFFFFFFFFFFFFFFFFFF AND CALLER PUSH20 0xFFFFFFFFFFFFFFFFFFFFFFFFFFFFFFFFFFFFFFFF AND EQ PUSH2 0x436 JUMPI PUSH1 0x40 MLOAD PUSH32 0x8C379A000000000000000000000000000000000000000000000000000000000 DUP2 MSTORE PUSH1 0x4 ADD PUSH2 0x42D SWAP1 PUSH2 0xB80 JUMP JUMPDEST PUSH1 0x40 MLOAD DUP1 SWAP2 SUB SWAP1 REVERT JUMPDEST PUSH2 0x43F DUP3 PUSH2 0x4FB JUMP JUMPDEST ISZERO PUSH2 0x47F JUMPI PUSH1 0x40 MLOAD PUSH32 0x8C379A000000000000000000000000000000000000000000000000000000000 DUP2 MSTORE PUSH1 0x4 ADD PUSH2 0x476 SWAP1 PUSH2 0xBE8 JUMP JUMPDEST PUSH1 0x40 MLOAD DUP1 SWAP2 SUB SWAP1 REVERT JUMPDEST PUSH1 0x40 MLOAD DUP1 PUSH1 0x40 ADD PUSH1 0x40 MSTORE DUP1 DUP4 DUP2 MSTORE PUSH1 0x20 ADD DUP3 DUP2 MSTORE POP PUSH0 DUP4 PUSH1 0x40 MLOAD PUSH2 0x4A3 SWAP2 SWAP1 PUSH2 0xA24 JUMP JUMPDEST SWAP1 DUP2 MSTORE PUSH1 0x20 ADD PUSH1 0x40 MLOAD DUP1 SWAP2 SUB SWAP1 KECCAK256 PUSH0 DUP3 ADD MLOAD DUP2 PUSH0 ADD SWAP1 DUP2 PUSH2 0x4C4 SWAP2 SWAP1 PUSH2 0xE00 JUMP JUMPDEST POP PUSH1 0x20 DUP3 ADD MLOAD DUP2 PUSH1 0x1 ADD SSTORE SWAP1 POP POP POP POP JUMP JUMPDEST PUSH1 0x1 PUSH0 SWAP1 SLOAD SWAP1 PUSH2 0x100 EXP SWAP1 DIV PUSH20 0xFFFFFFFFFFFFFFFFFFFFFFFFFFFFFFFFFFFFFFFF AND DUP2 JUMP JUMPDEST PUSH0 DUP1 PUSH0 DUP4 PUSH1 0x40 MLOAD PUSH2 0x50C SWAP2 SWAP1 PUSH2 0xA24 JUMP JUMPDEST SWAP1 DUP2 MSTORE PUSH1 0x20 ADD PUSH1 0x40 MLOAD DUP1 SWAP2 SUB SWAP1 KECCAK256 PUSH0 ADD DUP1 SLOAD PUSH2 0x527 SWAP1 PUSH2 0xC33 JUMP JUMPDEST SWAP1 POP GT SWAP1 POP SWAP2 SWAP1 POP JUMP JUMPDEST PUSH0 DUP2 DUP1 MLOAD PUSH1 0x20 DUP2 ADD DUP3 ADD DUP1 MLOAD DUP5 DUP3 MSTORE PUSH1 0x20 DUP4 ADD PUSH1 0x20 DUP6 ADD KECCAK256 DUP2 DUP4 MSTORE DUP1 SWAP6 POP POP POP POP POP POP PUSH0 SWAP2 POP SWAP1 POP DUP1 PUSH0 ADD DUP1 SLOAD PUSH2 0x567 SWAP1 PUSH2 0xC33 JUMP JUMPDEST DUP1 PUSH1 0x1F ADD PUSH1 0x20 DUP1 SWAP2 DIV MUL PUSH1 0x20 ADD PUSH1 0x40 MLOAD SWAP1 DUP2 ADD PUSH1 0x40 MSTORE DUP1 SWAP3 SWAP2 SWAP1 DUP2 DUP2 MSTORE PUSH1 0x20 ADD DUP3 DUP1 SLOAD PUSH2 0x593 SWAP1 PUSH2 0xC33 JUMP JUMPDEST DUP1 ISZERO PUSH2 0x5DE JUMPI DUP1 PUSH1 0x1F LT PUSH2 0x5B5 JUMPI PUSH2 0x100 DUP1 DUP4 SLOAD DIV MUL DUP4 MSTORE SWAP2 PUSH1 0x20 ADD SWAP2 PUSH2 0x5DE JUMP JUMPDEST DUP3 ADD SWAP2 SWAP1 PUSH0 MSTORE PUSH1 0x20 PUSH0 KECCAK256 SWAP1 JUMPDEST DUP2 SLOAD DUP2 MSTORE SWAP1 PUSH1 0x1 ADD SWAP1 PUSH1 0x20 ADD DUP1 DUP4 GT PUSH2 0x5C1 JUMPI DUP3 SWAP1 SUB PUSH1 0x1F AND DUP3 ADD SWAP2 JUMPDEST POP POP POP POP POP SWAP1 DUP1 PUSH1 0x1 ADD SLOAD SWAP1 POP DUP3 JUMP JUMPDEST PUSH2 0x5F7 DUP2 PUSH2 0x4FB JUMP JUMPDEST PUSH2 0x636 JUMPI PUSH1 0x40 MLOAD PUSH32 0x8C379A000000000000000000000000000000000000000000000000000000000 DUP2 MSTORE PUSH1 0x4 ADD PUSH2 0x62D SWAP1 PUSH2 0x9CC JUMP JUMPDEST PUSH1 0x40 MLOAD DUP1 SWAP2 SUB SWAP1 REVERT JUMPDEST POP JUMP JUMPDEST PUSH0 PUSH1 0x40 MLOAD SWAP1 POP SWAP1 JUMP JUMPDEST PUSH0 DUP1 REVERT JUMPDEST PUSH0 DUP1 REVERT JUMPDEST PUSH0 DUP1 REVERT JUMPDEST PUSH0 DUP1 REVERT JUMPDEST PUSH0 PUSH1 0x1F NOT PUSH1 0x1F DUP4 ADD AND SWAP1 POP SWAP2 SWAP1 POP JUMP JUMPDEST PUSH32 0x4E487B7100000000000000000000000000000000000000000000000000000000 PUSH0 MSTORE PUSH1 0x41 PUSH1 0x4 MSTORE PUSH1 0x24 PUSH0 REVERT JUMPDEST PUSH2 0x698 DUP3 PUSH2 0x652 JUMP JUMPDEST DUP2 ADD DUP2 DUP2 LT PUSH8 0xFFFFFFFFFFFFFFFF DUP3 GT OR ISZERO PUSH2 0x6B7 JUMPI PUSH2 0x6B6 PUSH2 0x662 JUMP JUMPDEST JUMPDEST DUP1 PUSH1 0x40 MSTORE POP POP POP JUMP JUMPDEST PUSH0 PUSH2 0x6C9 PUSH2 0x639 JUMP JUMPDEST SWAP1 POP PUSH2 0x6D5 DUP3 DUP3 PUSH2 0x68F JUMP JUMPDEST SWAP2 SWAP1 POP JUMP JUMPDEST PUSH0 PUSH8 0xFFFFFFFFFFFFFFFF DUP3 GT ISZERO PUSH2 0x6F4 JUMPI PUSH2 0x6F3 PUSH2 0x662 JUMP JUMPDEST JUMPDEST PUSH2 0x6FD DUP3 PUSH2 0x652 JUMP JUMPDEST SWAP1 POP PUSH1 0x20 DUP2 ADD SWAP1 POP SWAP2 SWAP1 POP JUMP JUMPDEST DUP3 DUP2 DUP4 CALLDATACOPY PUSH0 DUP4 DUP4 ADD MSTORE POP POP POP JUMP JUMPDEST PUSH0 PUSH2 0x72A PUSH2 0x725 DUP5 PUSH2 0x6DA JUMP JUMPDEST PUSH2 0x6C0 JUMP JUMPDEST SWAP1 POP DUP3 DUP2 MSTORE PUSH1 0x20 DUP2 ADD DUP5 DUP5 DUP5 ADD GT ISZERO PUSH2 0x746 JUMPI PUSH2 0x745 PUSH2 0x64E JUMP JUMPDEST JUMPDEST PUSH2 0x751 DUP5 DUP3 DUP6 PUSH2 0x70A JUMP JUMPDEST POP SWAP4 SWAP3 POP POP POP JUMP JUMPDEST PUSH0 DUP3 PUSH1 0x1F DUP4 ADD SLT PUSH2 0x76D JUMPI PUSH2 0x76C PUSH2 0x64A JUMP JUMPDEST JUMPDEST DUP2 CALLDATALOAD PUSH2 0x77D DUP5 DUP3 PUSH1 0x20 DUP7 ADD PUSH2 0x718 JUMP JUMPDEST SWAP2 POP POP SWAP3 SWAP2 POP POP JUMP JUMPDEST PUSH0 DUP2 SWAP1 POP SWAP2 SWAP1 POP JUMP JUMPDEST PUSH2 0x798 DUP2 PUSH2 0x786 JUMP JUMPDEST DUP2 EQ PUSH2 0x7A2 JUMPI PUSH0 DUP1 REVERT JUMPDEST POP JUMP JUMPDEST PUSH0 DUP2 CALLDATALOAD SWAP1 POP PUSH2 0x7B3 DUP2 PUSH2 0x78F JUMP JUMPDEST SWAP3 SWAP2 POP POP JUMP JUMPDEST PUSH0 DUP1 PUSH1 0x40 DUP4 DUP6 SUB SLT ISZERO PUSH2 0x7CF JUMPI PUSH2 0x7CE PUSH2 0x642 JUMP JUMPDEST JUMPDEST PUSH0 DUP4 ADD CALLDATALOAD PUSH8 0xFFFFFFFFFFFFFFFF DUP2 GT ISZERO PUSH2 0x7EC JUMPI PUSH2 0x7EB PUSH2 0x646 JUMP JUMPDEST JUMPDEST PUSH2 0x7F8 DUP6 DUP3 DUP7 ADD PUSH2 0x759 JUMP JUMPDEST SWAP3 POP POP PUSH1 0x20 PUSH2 0x809 DUP6 DUP3 DUP7 ADD PUSH2 0x7A5 JUMP JUMPDEST SWAP2 POP POP SWAP3 POP SWAP3 SWAP1 POP JUMP JUMPDEST PUSH0 PUSH20 0xFFFFFFFFFFFFFFFFFFFFFFFFFFFFFFFFFFFFFFFF DUP3 AND SWAP1 POP SWAP2 SWAP1 POP JUMP JUMPDEST PUSH0 PUSH2 0x83C DUP3 PUSH2 0x813 JUMP JUMPDEST SWAP1 POP SWAP2 SWAP1 POP JUMP JUMPDEST PUSH2 0x84C DUP2 PUSH2 0x832 JUMP JUMPDEST DUP3 MSTORE POP POP JUMP JUMPDEST PUSH0 PUSH1 0x20 DUP3 ADD SWAP1 POP PUSH2 0x865 PUSH0 DUP4 ADD DUP5 PUSH2 0x843 JUMP JUMPDEST SWAP3 SWAP2 POP POP JUMP JUMPDEST PUSH0 PUSH1 0x20 DUP3 DUP5 SUB SLT ISZERO PUSH2 0x880 JUMPI PUSH2 0x87F PUSH2 0x642 JUMP JUMPDEST JUMPDEST PUSH0 DUP3 ADD CALLDATALOAD PUSH8 0xFFFFFFFFFFFFFFFF DUP2 GT ISZERO PUSH2 0x89D JUMPI PUSH2 0x89C PUSH2 0x646 JUMP JUMPDEST JUMPDEST PUSH2 0x8A9 DUP5 DUP3 DUP6 ADD PUSH2 0x759 JUMP JUMPDEST SWAP2 POP POP SWAP3 SWAP2 POP POP JUMP JUMPDEST PUSH0 DUP2 ISZERO ISZERO SWAP1 POP SWAP2 SWAP1 POP JUMP JUMPDEST PUSH2 0x8C6 DUP2 PUSH2 0x8B2 JUMP JUMPDEST DUP3 MSTORE POP POP JUMP JUMPDEST PUSH0 PUSH1 0x20 DUP3 ADD SWAP1 POP PUSH2 0x8DF PUSH0 DUP4 ADD DUP5 PUSH2 0x8BD JUMP JUMPDEST SWAP3 SWAP2 POP POP JUMP JUMPDEST PUSH0 DUP2 MLOAD SWAP1 POP SWAP2 SWAP1 POP JUMP JUMPDEST PUSH0 DUP3 DUP3 MSTORE PUSH1 0x20 DUP3 ADD SWAP1 POP SWAP3 SWAP2 POP POP JUMP JUMPDEST DUP3 DUP2 DUP4 MCOPY PUSH0 DUP4 DUP4 ADD MSTORE POP POP POP JUMP JUMPDEST PUSH0 PUSH2 0x917 DUP3 PUSH2 0x8E5 JUMP JUMPDEST PUSH2 0x921 DUP2 DUP6 PUSH2 0x8EF JUMP JUMPDEST SWAP4 POP PUSH2 0x931 DUP2 DUP6 PUSH1 0x20 DUP7 ADD PUSH2 0x8FF JUMP JUMPDEST PUSH2 0x93A DUP2 PUSH2 0x652 JUMP JUMPDEST DUP5 ADD SWAP2 POP POP SWAP3 SWAP2 POP POP JUMP JUMPDEST PUSH2 0x94E DUP2 PUSH2 0x786 JUMP JUMPDEST DUP3 MSTORE POP POP JUMP JUMPDEST PUSH0 PUSH1 0x40 DUP3 ADD SWAP1 POP DUP2 DUP2 SUB PUSH0 DUP4 ADD MSTORE PUSH2 0x96C DUP2 DUP6 PUSH2 0x90D JUMP JUMPDEST SWAP1 POP PUSH2 0x97B PUSH1 0x20 DUP4 ADD DUP5 PUSH2 0x945 JUMP JUMPDEST SWAP4 SWAP3 POP POP POP JUMP JUMPDEST PUSH32 0x43727970746F20646F6573206E6F742065786973740000000000000000000000 PUSH0 DUP3 ADD MSTORE POP JUMP JUMPDEST PUSH0 PUSH2 0x9B6 PUSH1 0x15 DUP4 PUSH2 0x8EF JUMP JUMPDEST SWAP2 POP PUSH2 0x9C1 DUP3 PUSH2 0x982 JUMP JUMPDEST PUSH1 0x20 DUP3 ADD SWAP1 POP SWAP2 SWAP1 POP JUMP JUMPDEST PUSH0 PUSH1 0x20 DUP3 ADD SWAP1 POP DUP2 DUP2 SUB PUSH0 DUP4 ADD MSTORE PUSH2 0x9E3 DUP2 PUSH2 0x9AA JUMP JUMPDEST SWAP1 POP SWAP2 SWAP1 POP JUMP JUMPDEST PUSH0 DUP2 SWAP1 POP SWAP3 SWAP2 POP POP JUMP JUMPDEST PUSH0 PUSH2 0x9FE DUP3 PUSH2 0x8E5 JUMP JUMPDEST PUSH2 0xA08 DUP2 DUP6 PUSH2 0x9EA JUMP JUMPDEST SWAP4 POP PUSH2 0xA18 DUP2 DUP6 PUSH1 0x20 DUP7 ADD PUSH2 0x8FF JUMP JUMPDEST DUP1 DUP5 ADD SWAP2 POP POP SWAP3 SWAP2 POP POP JUMP JUMPDEST PUSH0 PUSH2 0xA2F DUP3 DUP5 PUSH2 0x9F4 JUMP JUMPDEST SWAP2 POP DUP2 SWAP1 POP SWAP3 SWAP2 POP POP JUMP JUMPDEST PUSH32 0x4E487B7100000000000000000000000000000000000000000000000000000000 PUSH0 MSTORE PUSH1 0x11 PUSH1 0x4 MSTORE PUSH1 0x24 PUSH0 REVERT JUMPDEST PUSH0 PUSH2 0xA71 DUP3 PUSH2 0x786 JUMP JUMPDEST SWAP2 POP PUSH2 0xA7C DUP4 PUSH2 0x786 JUMP JUMPDEST SWAP3 POP DUP3 DUP3 MUL PUSH2 0xA8A DUP2 PUSH2 0x786 JUMP JUMPDEST SWAP2 POP DUP3 DUP3 DIV DUP5 EQ DUP4 ISZERO OR PUSH2 0xAA1 JUMPI PUSH2 0xAA0 PUSH2 0xA3A JUMP JUMPDEST JUMPDEST POP SWAP3 SWAP2 POP POP JUMP JUMPDEST PUSH32 0x496E73756666696369656E742066756E64730000000000000000000000000000 PUSH0 DUP3 ADD MSTORE POP JUMP JUMPDEST PUSH0 PUSH2 0xADC PUSH1 0x12 DUP4 PUSH2 0x8EF JUMP JUMPDEST SWAP2 POP PUSH2 0xAE7 DUP3 PUSH2 0xAA8 JUMP JUMPDEST PUSH1 0x20 DUP3 ADD SWAP1 POP SWAP2 SWAP1 POP JUMP JUMPDEST PUSH0 PUSH1 0x20 DUP3 ADD SWAP1 POP DUP2 DUP2 SUB PUSH0 DUP4 ADD MSTORE PUSH2 0xB09 DUP2 PUSH2 0xAD0 JUMP JUMPDEST SWAP1 POP SWAP2 SWAP1 POP JUMP JUMPDEST PUSH32 0x4F6E6C79206F776E65722063616E20706572666F726D20746869732061637469 PUSH0 DUP3 ADD MSTORE PUSH32 0x6F6E000000000000000000000000000000000000000000000000000000000000 PUSH1 0x20 DUP3 ADD MSTORE POP JUMP JUMPDEST PUSH0 PUSH2 0xB6A PUSH1 0x22 DUP4 PUSH2 0x8EF JUMP JUMPDEST SWAP2 POP PUSH2 0xB75 DUP3 PUSH2 0xB10 JUMP JUMPDEST PUSH1 0x40 DUP3 ADD SWAP1 POP SWAP2 SWAP1 POP JUMP JUMPDEST PUSH0 PUSH1 0x20 DUP3 ADD SWAP1 POP DUP2 DUP2 SUB PUSH0 DUP4 ADD MSTORE PUSH2 0xB97 DUP2 PUSH2 0xB5E JUMP JUMPDEST SWAP1 POP SWAP2 SWAP1 POP JUMP JUMPDEST PUSH32 0x43727970746F20616C7265616479206578697374730000000000000000000000 PUSH0 DUP3 ADD MSTORE POP JUMP JUMPDEST PUSH0 PUSH2 0xBD2 PUSH1 0x15 DUP4 PUSH2 0x8EF JUMP JUMPDEST SWAP2 POP PUSH2 0xBDD DUP3 PUSH2 0xB9E JUMP JUMPDEST PUSH1 0x20 DUP3 ADD SWAP1 POP SWAP2 SWAP1 POP JUMP JUMPDEST PUSH0 PUSH1 0x20 DUP3 ADD SWAP1 POP DUP2 DUP2 SUB PUSH0 DUP4 ADD MSTORE PUSH2 0xBFF DUP2 PUSH2 0xBC6 JUMP JUMPDEST SWAP1 POP SWAP2 SWAP1 POP JUMP JUMPDEST PUSH32 0x4E487B7100000000000000000000000000000000000000000000000000000000 PUSH0 MSTORE PUSH1 0x22 PUSH1 0x4 MSTORE PUSH1 0x24 PUSH0 REVERT JUMPDEST PUSH0 PUSH1 0x2 DUP3 DIV SWAP1 POP PUSH1 0x1 DUP3 AND DUP1 PUSH2 0xC4A JUMPI PUSH1 0x7F DUP3 AND SWAP2 POP JUMPDEST PUSH1 0x20 DUP3 LT DUP2 SUB PUSH2 0xC5D JUMPI PUSH2 0xC5C PUSH2 0xC06 JUMP JUMPDEST JUMPDEST POP SWAP2 SWAP1 POP JUMP JUMPDEST PUSH0 DUP2 SWAP1 POP DUP2 PUSH0 MSTORE PUSH1 0x20 PUSH0 KECCAK256 SWAP1 POP SWAP2 SWAP1 POP JUMP JUMPDEST PUSH0 PUSH1 0x20 PUSH1 0x1F DUP4 ADD DIV SWAP1 POP SWAP2 SWAP1 POP JUMP JUMPDEST PUSH0 DUP3 DUP3 SHL SWAP1 POP SWAP3 SWAP2 POP POP JUMP JUMPDEST PUSH0 PUSH1 0x8 DUP4 MUL PUSH2 0xCBF PUSH32 0xFFFFFFFFFFFFFFFFFFFFFFFFFFFFFFFFFFFFFFFFFFFFFFFFFFFFFFFFFFFFFFFF DUP3 PUSH2 0xC84 JUMP JUMPDEST PUSH2 0xCC9 DUP7 DUP4 PUSH2 0xC84 JUMP JUMPDEST SWAP6 POP DUP1 NOT DUP5 AND SWAP4 POP DUP1 DUP7 AND DUP5 OR SWAP3 POP POP POP SWAP4 SWAP3 POP POP POP JUMP JUMPDEST PUSH0 DUP2 SWAP1 POP SWAP2 SWAP1 POP JUMP JUMPDEST PUSH0 PUSH2 0xD04 PUSH2 0xCFF PUSH2 0xCFA DUP5 PUSH2 0x786 JUMP JUMPDEST PUSH2 0xCE1 JUMP JUMPDEST PUSH2 0x786 JUMP JUMPDEST SWAP1 POP SWAP2 SWAP1 POP JUMP JUMPDEST PUSH0 DUP2 SWAP1 POP SWAP2 SWAP1 POP JUMP JUMPDEST PUSH2 0xD1D DUP4 PUSH2 0xCEA JUMP JUMPDEST PUSH2 0xD31 PUSH2 0xD29 DUP3 PUSH2 0xD0B JUMP JUMPDEST DUP5 DUP5 SLOAD PUSH2 0xC90 JUMP JUMPDEST DUP3 SSTORE POP POP POP POP JUMP JUMPDEST PUSH0 SWAP1 JUMP JUMPDEST PUSH2 0xD45 PUSH2 0xD39 JUMP JUMPDEST PUSH2 0xD50 DUP2 DUP5 DUP5 PUSH2 0xD14 JUMP JUMPDEST POP POP POP JUMP JUMPDEST JUMPDEST DUP2 DUP2 LT ISZERO PUSH2 0xD73 JUMPI PUSH2 0xD68 PUSH0 DUP3 PUSH2 0xD3D JUMP JUMPDEST PUSH1 0x1 DUP2 ADD SWAP1 POP PUSH2 0xD56 JUMP JUMPDEST POP POP JUMP JUMPDEST PUSH1 0x1F DUP3 GT ISZERO PUSH2 0xDB8 JUMPI PUSH2 0xD89 DUP2 PUSH2 0xC63 JUMP JUMPDEST PUSH2 0xD92 DUP5 PUSH2 0xC75 JUMP JUMPDEST DUP2 ADD PUSH1 0x20 DUP6 LT ISZERO PUSH2 0xDA1 JUMPI DUP2 SWAP1 POP JUMPDEST PUSH2 0xDB5 PUSH2 0xDAD DUP6 PUSH2 0xC75 JUMP JUMPDEST DUP4 ADD DUP3 PUSH2 0xD55 JUMP JUMPDEST POP POP JUMPDEST POP POP POP JUMP JUMPDEST PUSH0 DUP3 DUP3 SHR SWAP1 POP SWAP3 SWAP2 POP POP JUMP JUMPDEST PUSH0 PUSH2 0xDD8 PUSH0 NOT DUP5 PUSH1 0x8 MUL PUSH2 0xDBD JUMP JUMPDEST NOT DUP1 DUP4 AND SWAP2 POP POP SWAP3 SWAP2 POP POP JUMP JUMPDEST PUSH0 PUSH2 0xDF0 DUP4 DUP4 PUSH2 0xDC9 JUMP JUMPDEST SWAP2 POP DUP3 PUSH1 0x2 MUL DUP3 OR SWAP1 POP SWAP3 SWAP2 POP POP JUMP JUMPDEST PUSH2 0xE09 DUP3 PUSH2 0x8E5 JUMP JUMPDEST PUSH8 0xFFFFFFFFFFFFFFFF DUP2 GT ISZERO PUSH2 0xE22 JUMPI PUSH2 0xE21 PUSH2 0x662 JUMP JUMPDEST JUMPDEST PUSH2 0xE2C DUP3 SLOAD PUSH2 0xC33 JUMP JUMPDEST PUSH2 0xE37 DUP3 DUP3 DUP6 PUSH2 0xD77 JUMP JUMPDEST PUSH0 PUSH1 0x20 SWAP1 POP PUSH1 0x1F DUP4 GT PUSH1 0x1 DUP2 EQ PUSH2 0xE68 JUMPI PUSH0 DUP5 ISZERO PUSH2 0xE56 JUMPI DUP3 DUP8 ADD MLOAD SWAP1 POP JUMPDEST PUSH2 0xE60 DUP6 DUP3 PUSH2 0xDE5 JUMP JUMPDEST DUP7 SSTORE POP PUSH2 0xEC7 JUMP JUMPDEST PUSH1 0x1F NOT DUP5 AND PUSH2 0xE76 DUP7 PUSH2 0xC63 JUMP JUMPDEST PUSH0 JUMPDEST DUP3 DUP2 LT ISZERO PUSH2 0xE9D JUMPI DUP5 DUP10 ADD MLOAD DUP3 SSTORE PUSH1 0x1 DUP3 ADD SWAP2 POP PUSH1 0x20 DUP6 ADD SWAP5 POP PUSH1 0x20 DUP2 ADD SWAP1 POP PUSH2 0xE78 JUMP JUMPDEST DUP7 DUP4 LT ISZERO PUSH2 0xEBA JUMPI DUP5 DUP10 ADD MLOAD PUSH2 0xEB6 PUSH1 0x1F DUP10 AND DUP3 PUSH2 0xDC9 JUMP JUMPDEST DUP4 SSTORE POP JUMPDEST PUSH1 0x1 PUSH1 0x2 DUP9 MUL ADD DUP9 SSTORE POP POP POP JUMPDEST POP POP POP POP POP POP JUMP INVALID LOG2 PUSH5 0x6970667358 0x22 SLT KECCAK256 0xE5 SWAP9 PUSH19 0x8A1CF56FBD00D513F3C2F04CECD4FBEF64F96B DUP1 CREATE INVALID PUSH24 0x468FE626F1CE64736F6C634300081A003300000000000000 "
				},
				"gasEstimates": {
					"creation": {
						"codeDepositCost": "769000",
						"executionCost": "25068",
						"totalCost": "794068"
					},
					"external": {
						"addCrypto(string,uint256)": "infinite",
						"buyCrypto(string,uint256)": "infinite",
						"cryptoExists(string)": "infinite",
						"cryptos(string)": "infinite",
						"owner()": "2508",
						"sellCrypto(string)": "infinite",
						"updateCryptoPrice(string,uint256)": "infinite"
					}
				},
				"methodIdentifiers": {
					"addCrypto(string,uint256)": "6edb5ff3",
					"buyCrypto(string,uint256)": "28e8fda5",
					"cryptoExists(string)": "9b69eeb3",
					"cryptos(string)": "a278544a",
					"owner()": "8da5cb5b",
					"sellCrypto(string)": "eb4939bd",
					"updateCryptoPrice(string,uint256)": "2b4bedb9"
				}
			},
			"storageLayout": {
				"storage": [
					{
						"astId": 11,
						"contract": "CryptoTrader.sol:CryptoTrader",
						"label": "cryptos",
						"offset": 0,
						"slot": "0",
						"type": "t_mapping(t_string_memory_ptr,t_struct(Crypto)6_storage)"
					},
					{
						"astId": 13,
						"contract": "CryptoTrader.sol:CryptoTrader",
						"label": "owner",
						"offset": 0,
						"slot": "1",
						"type": "t_address"
					}
				],
				"types": {
					"t_address": {
						"encoding": "inplace",
						"label": "address",
						"numberOfBytes": "20"
					},
					"t_mapping(t_string_memory_ptr,t_struct(Crypto)6_storage)": {
						"encoding": "mapping",
						"key": "t_string_memory_ptr",
						"label": "mapping(string => struct CryptoTrader.Crypto)",
						"numberOfBytes": "32",
						"value": "t_struct(Crypto)6_storage"
					},
					"t_string_memory_ptr": {
						"encoding": "bytes",
						"label": "string",
						"numberOfBytes": "32"
					},
					"t_string_storage": {
						"encoding": "bytes",
						"label": "string",
						"numberOfBytes": "32"
					},
					"t_struct(Crypto)6_storage": {
						"encoding": "inplace",
						"label": "struct CryptoTrader.Crypto",
						"members": [
							{
								"astId": 3,
								"contract": "CryptoTrader.sol:CryptoTrader",
								"label": "name",
								"offset": 0,
								"slot": "0",
								"type": "t_string_storage"
							},
							{
								"astId": 5,
								"contract": "CryptoTrader.sol:CryptoTrader",
								"label": "price",
								"offset": 0,
								"slot": "1",
								"type": "t_uint256"
							}
						],
						"numberOfBytes": "64"
					},
					"t_uint256": {
						"encoding": "inplace",
						"label": "uint256",
						"numberOfBytes": "32"
					}
				}
			},
			"userdoc": {
				"kind": "user",
				"methods": {},
				"version": 1
			}
		}
	}
}